{
  "address": "0xD586442b20b00DFcb0E2476C0bB260F123189288",
  "abi": [
    {
      "inputs": [
        {
          "internalType": "address",
          "name": "_stakingAddr",
          "type": "address"
        }
      ],
      "stateMutability": "nonpayable",
      "type": "constructor"
    },
    {
      "anonymous": false,
      "inputs": [
        {
          "indexed": true,
          "internalType": "address",
          "name": "owner",
          "type": "address"
        },
        {
          "indexed": true,
          "internalType": "address",
          "name": "spender",
          "type": "address"
        },
        {
          "indexed": false,
          "internalType": "uint256",
          "name": "value",
          "type": "uint256"
        }
      ],
      "name": "Approval",
      "type": "event"
    },
    {
      "anonymous": false,
      "inputs": [
        {
          "indexed": false,
          "internalType": "address",
          "name": "_validator",
          "type": "address"
        },
        {
          "indexed": false,
          "internalType": "address",
          "name": "_owner",
          "type": "address"
        },
        {
          "indexed": false,
          "internalType": "address",
          "name": "_listingAddress",
          "type": "address"
        }
      ],
      "name": "ListingCreation",
      "type": "event"
    },
    {
      "anonymous": false,
      "inputs": [
        {
          "indexed": true,
          "internalType": "bytes32",
          "name": "role",
          "type": "bytes32"
        },
        {
          "indexed": true,
          "internalType": "bytes32",
          "name": "previousAdminRole",
          "type": "bytes32"
        },
        {
          "indexed": true,
          "internalType": "bytes32",
          "name": "newAdminRole",
          "type": "bytes32"
        }
      ],
      "name": "RoleAdminChanged",
      "type": "event"
    },
    {
      "anonymous": false,
      "inputs": [
        {
          "indexed": true,
          "internalType": "bytes32",
          "name": "role",
          "type": "bytes32"
        },
        {
          "indexed": true,
          "internalType": "address",
          "name": "account",
          "type": "address"
        },
        {
          "indexed": true,
          "internalType": "address",
          "name": "sender",
          "type": "address"
        }
      ],
      "name": "RoleGranted",
      "type": "event"
    },
    {
      "anonymous": false,
      "inputs": [
        {
          "indexed": true,
          "internalType": "bytes32",
          "name": "role",
          "type": "bytes32"
        },
        {
          "indexed": true,
          "internalType": "address",
          "name": "account",
          "type": "address"
        },
        {
          "indexed": true,
          "internalType": "address",
          "name": "sender",
          "type": "address"
        }
      ],
      "name": "RoleRevoked",
      "type": "event"
    },
    {
      "anonymous": false,
      "inputs": [
        {
          "indexed": true,
          "internalType": "address",
          "name": "from",
          "type": "address"
        },
        {
          "indexed": true,
          "internalType": "address",
          "name": "to",
          "type": "address"
        },
        {
          "indexed": false,
          "internalType": "uint256",
          "name": "value",
          "type": "uint256"
        }
      ],
      "name": "Transfer",
      "type": "event"
    },
    {
      "anonymous": false,
      "inputs": [
        {
          "indexed": false,
          "internalType": "address",
          "name": "_stakingAddr",
          "type": "address"
        }
      ],
      "name": "UpdateStakingAddr",
      "type": "event"
    },
    {
      "inputs": [],
      "name": "DEFAULT_ADMIN_ROLE",
      "outputs": [
        {
          "internalType": "bytes32",
          "name": "",
          "type": "bytes32"
        }
      ],
      "stateMutability": "view",
      "type": "function"
    },
    {
      "inputs": [],
      "name": "VALIDATOR",
      "outputs": [
        {
          "internalType": "bytes32",
          "name": "",
          "type": "bytes32"
        }
      ],
      "stateMutability": "view",
      "type": "function"
    },
    {
      "inputs": [
        {
          "internalType": "address",
          "name": "owner",
          "type": "address"
        },
        {
          "internalType": "address",
          "name": "spender",
          "type": "address"
        }
      ],
      "name": "allowance",
      "outputs": [
        {
          "internalType": "uint256",
          "name": "",
          "type": "uint256"
        }
      ],
      "stateMutability": "view",
      "type": "function"
    },
    {
      "inputs": [
        {
          "internalType": "address",
          "name": "spender",
          "type": "address"
        },
        {
          "internalType": "uint256",
          "name": "amount",
          "type": "uint256"
        }
      ],
      "name": "approve",
      "outputs": [
        {
          "internalType": "bool",
          "name": "",
          "type": "bool"
        }
      ],
      "stateMutability": "nonpayable",
      "type": "function"
    },
    {
      "inputs": [
        {
          "internalType": "address",
          "name": "account",
          "type": "address"
        }
      ],
      "name": "balanceOf",
      "outputs": [
        {
          "internalType": "uint256",
          "name": "",
          "type": "uint256"
        }
      ],
      "stateMutability": "view",
      "type": "function"
    },
    {
      "inputs": [
        {
          "internalType": "address",
          "name": "_owner",
          "type": "address"
        },
        {
          "internalType": "uint256",
          "name": "_listingId",
          "type": "uint256"
        }
      ],
      "name": "createListing",
      "outputs": [],
      "stateMutability": "nonpayable",
      "type": "function"
    },
    {
      "inputs": [],
      "name": "decimals",
      "outputs": [
        {
          "internalType": "uint8",
          "name": "",
          "type": "uint8"
        }
      ],
      "stateMutability": "view",
      "type": "function"
    },
    {
      "inputs": [
        {
          "internalType": "address",
          "name": "spender",
          "type": "address"
        },
        {
          "internalType": "uint256",
          "name": "subtractedValue",
          "type": "uint256"
        }
      ],
      "name": "decreaseAllowance",
      "outputs": [
        {
          "internalType": "bool",
          "name": "",
          "type": "bool"
        }
      ],
      "stateMutability": "nonpayable",
      "type": "function"
    },
    {
      "inputs": [
        {
          "internalType": "bytes32",
          "name": "role",
          "type": "bytes32"
        }
      ],
      "name": "getRoleAdmin",
      "outputs": [
        {
          "internalType": "bytes32",
          "name": "",
          "type": "bytes32"
        }
      ],
      "stateMutability": "view",
      "type": "function"
    },
    {
      "inputs": [
        {
          "internalType": "bytes32",
          "name": "role",
          "type": "bytes32"
        },
        {
          "internalType": "address",
          "name": "account",
          "type": "address"
        }
      ],
      "name": "grantRole",
      "outputs": [],
      "stateMutability": "nonpayable",
      "type": "function"
    },
    {
      "inputs": [
        {
          "internalType": "address",
          "name": "_userAddr",
          "type": "address"
        },
        {
          "internalType": "uint256",
          "name": "_amount",
          "type": "uint256"
        },
        {
          "internalType": "bool",
          "name": "_in",
          "type": "bool"
        }
      ],
      "name": "handleListingTx",
      "outputs": [
        {
          "internalType": "bool",
          "name": "",
          "type": "bool"
        }
      ],
      "stateMutability": "nonpayable",
      "type": "function"
    },
    {
      "inputs": [
        {
          "internalType": "bytes32",
          "name": "role",
          "type": "bytes32"
        },
        {
          "internalType": "address",
          "name": "account",
          "type": "address"
        }
      ],
      "name": "hasRole",
      "outputs": [
        {
          "internalType": "bool",
          "name": "",
          "type": "bool"
        }
      ],
      "stateMutability": "view",
      "type": "function"
    },
    {
      "inputs": [
        {
          "internalType": "address",
          "name": "spender",
          "type": "address"
        },
        {
          "internalType": "uint256",
          "name": "addedValue",
          "type": "uint256"
        }
      ],
      "name": "increaseAllowance",
      "outputs": [
        {
          "internalType": "bool",
          "name": "",
          "type": "bool"
        }
      ],
      "stateMutability": "nonpayable",
      "type": "function"
    },
    {
      "inputs": [
        {
          "internalType": "address",
          "name": "",
          "type": "address"
        }
      ],
      "name": "listingStatus",
      "outputs": [
        {
          "internalType": "bool",
          "name": "_isCreated",
          "type": "bool"
        },
        {
          "internalType": "bool",
          "name": "_active",
          "type": "bool"
        }
      ],
      "stateMutability": "view",
      "type": "function"
    },
    {
      "inputs": [],
      "name": "name",
      "outputs": [
        {
          "internalType": "string",
          "name": "",
          "type": "string"
        }
      ],
      "stateMutability": "view",
      "type": "function"
    },
    {
      "inputs": [
        {
          "internalType": "bytes32",
          "name": "role",
          "type": "bytes32"
        },
        {
          "internalType": "address",
          "name": "account",
          "type": "address"
        }
      ],
      "name": "renounceRole",
      "outputs": [],
      "stateMutability": "nonpayable",
      "type": "function"
    },
    {
      "inputs": [
        {
          "internalType": "bytes32",
          "name": "role",
          "type": "bytes32"
        },
        {
          "internalType": "address",
          "name": "account",
          "type": "address"
        }
      ],
      "name": "revokeRole",
      "outputs": [],
      "stateMutability": "nonpayable",
      "type": "function"
    },
    {
      "inputs": [],
      "name": "stakingAddress",
      "outputs": [
        {
          "internalType": "address",
          "name": "",
          "type": "address"
        }
      ],
      "stateMutability": "view",
      "type": "function"
    },
    {
      "inputs": [
        {
          "internalType": "bytes4",
          "name": "interfaceId",
          "type": "bytes4"
        }
      ],
      "name": "supportsInterface",
      "outputs": [
        {
          "internalType": "bool",
          "name": "",
          "type": "bool"
        }
      ],
      "stateMutability": "view",
      "type": "function"
    },
    {
      "inputs": [],
      "name": "symbol",
      "outputs": [
        {
          "internalType": "string",
          "name": "",
          "type": "string"
        }
      ],
      "stateMutability": "view",
      "type": "function"
    },
    {
      "inputs": [
        {
          "internalType": "address",
          "name": "_listingAddr",
          "type": "address"
        }
      ],
      "name": "toggleListingStatus",
      "outputs": [],
      "stateMutability": "nonpayable",
      "type": "function"
    },
    {
      "inputs": [],
      "name": "totalSupply",
      "outputs": [
        {
          "internalType": "uint256",
          "name": "",
          "type": "uint256"
        }
      ],
      "stateMutability": "view",
      "type": "function"
    },
    {
      "inputs": [
        {
          "internalType": "address",
          "name": "recipient",
          "type": "address"
        },
        {
          "internalType": "uint256",
          "name": "amount",
          "type": "uint256"
        }
      ],
      "name": "transfer",
      "outputs": [
        {
          "internalType": "bool",
          "name": "",
          "type": "bool"
        }
      ],
      "stateMutability": "nonpayable",
      "type": "function"
    },
    {
      "inputs": [
        {
          "internalType": "address",
          "name": "sender",
          "type": "address"
        },
        {
          "internalType": "address",
          "name": "recipient",
          "type": "address"
        },
        {
          "internalType": "uint256",
          "name": "amount",
          "type": "uint256"
        }
      ],
      "name": "transferFrom",
      "outputs": [
        {
          "internalType": "bool",
          "name": "",
          "type": "bool"
        }
      ],
      "stateMutability": "nonpayable",
      "type": "function"
    },
    {
      "inputs": [
        {
          "internalType": "address",
          "name": "_stakingAddr",
          "type": "address"
        }
      ],
      "name": "updateStakingAddress",
      "outputs": [],
      "stateMutability": "nonpayable",
      "type": "function"
    }
  ],
  "transactionHash": "0x5b9268306dd5bf1c499dfb42f0d976d52d2650c7f1ea875fc019a3d1fc64e859",
  "args": [
    "0xbB16550010cA6e7648A065a3DA7ccff39CEfcAC5"
  ],
  "solcInputHash": "f60d477fb39d3e07162bded773dac701",
  "bytecode": "0x60806040523480156200001157600080fd5b5060405162002e4538038062002e4583398101604081905262000034916200037f565b604080518082018252600a81526920a7232a102a37b5b2b760b11b6020808301918252835180850190945260048452631053919560e21b9084015281519192916200008291600391620002d9565b50805162000098906004906020840190620002d9565b505050620000d333620000b06200012e60201b60201c565b620000bd90600a62000413565b620000cd9063496ed400620004d2565b62000133565b600680546001600160a01b0319166001600160a01b038316179055620000fb6000336200021c565b620001277fa95257aebefccffaada4758f028bce81ea992693be70592f620c4c9a0d9e715a336200021c565b5062000547565b601290565b6001600160a01b0382166200018e5760405162461bcd60e51b815260206004820152601f60248201527f45524332303a206d696e7420746f20746865207a65726f206164647265737300604482015260640160405180910390fd5b8060026000828254620001a29190620003af565b90915550506001600160a01b03821660009081526020819052604081208054839290620001d1908490620003af565b90915550506040518181526001600160a01b038316906000907fddf252ad1be2c89b69c2b068fc378daa952ba7f163c4a11628f55a4df523b3ef9060200160405180910390a35b5050565b6200021882826200022e8282620002ac565b620002185760008281526005602090815260408083206001600160a01b03851684529091529020805460ff19166001179055620002683390565b6001600160a01b0316816001600160a01b0316837f2f8788117e7eff1d82e926ec794901d17c78024a50270940304540a733656f0d60405160405180910390a45050565b60008281526005602090815260408083206001600160a01b038516845290915290205460ff165b92915050565b828054620002e790620004f4565b90600052602060002090601f0160209004810192826200030b576000855562000356565b82601f106200032657805160ff191683800117855562000356565b8280016001018555821562000356579182015b828111156200035657825182559160200191906001019062000339565b506200036492915062000368565b5090565b5b8082111562000364576000815560010162000369565b60006020828403121562000391578081fd5b81516001600160a01b0381168114620003a8578182fd5b9392505050565b60008219821115620003c557620003c562000531565b500190565b600181815b808511156200040b578160001904821115620003ef57620003ef62000531565b80851615620003fd57918102915b93841c9390800290620003cf565b509250929050565b6000620003a860ff8416836000826200042f57506001620002d3565b816200043e57506000620002d3565b8160018114620004575760028114620004625762000482565b6001915050620002d3565b60ff84111562000476576200047662000531565b50506001821b620002d3565b5060208310610133831016604e8410600b8410161715620004a7575081810a620002d3565b620004b38383620003ca565b8060001904821115620004ca57620004ca62000531565b029392505050565b6000816000190483118215151615620004ef57620004ef62000531565b500290565b600181811c908216806200050957607f821691505b602082108114156200052b57634e487b7160e01b600052602260045260246000fd5b50919050565b634e487b7160e01b600052601160045260246000fd5b6128ee80620005576000396000f3fe608060405234801561001057600080fd5b50600436106101335760003560e01c806301ffc9a71461013857806306fdde0314610160578063095ea7b31461017557806318160ddd1461018857806323b872dd1461019a578063248a9ca3146101ad5780632f2ff15d146101c0578063313ce567146101d557806336568abe146101e4578063393df8cb146101f7578063395093511461020d5780635b06a1d1146102205780636b62393e1461023357806370a082311461024657806385e1c7241461026f57806391d148541461028257806395d89b4114610295578063a217fddf1461029d578063a457c2d7146102a5578063a9059cbb146102b8578063d547741f146102cb578063d7b4be24146102de578063dd62ed3e146102fe578063e6d50cd714610337578063e9dc65bb1461037a575b600080fd5b61014b610146366004611172565b61038d565b60405190151581526020015b60405180910390f35b6101686103c4565b604051610157919061121d565b61014b6101833660046110cc565b610456565b6002545b604051908152602001610157565b61014b6101a8366004611091565b61046c565b61018c6101bb366004611138565b61051b565b6101d36101ce366004611150565b610530565b005b60405160128152602001610157565b6101d36101f2366004611150565b610552565b61018c6000805160206200289983398151915281565b61014b61021b3660046110cc565b6105d0565b6101d361022e366004611045565b61060c565b6101d3610241366004611045565b610689565b61018c610254366004611045565b6001600160a01b031660009081526020819052604090205490565b6101d361027d3660046110cc565b610728565b61014b610290366004611150565b61081e565b610168610849565b61018c600081565b61014b6102b33660046110cc565b610858565b61014b6102c63660046110cc565b6108f1565b6101d36102d9366004611150565b6108fe565b6006546102f1906001600160a01b031681565b6040516101579190611209565b61018c61030c36600461105f565b6001600160a01b03918216600090815260016020908152604080832093909416825291909152205490565b610363610345366004611045565b60076020526000908152604090205460ff8082169161010090041682565b604080519215158352901515602083015201610157565b61014b6103883660046110f5565b61091b565b60006001600160e01b03198216637965db0b60e01b14806103be57506301ffc9a760e01b6001600160e01b03198316145b92915050565b6060600380546103d390611329565b80601f01602080910402602001604051908101604052809291908181526020018280546103ff90611329565b801561044c5780601f106104215761010080835404028352916020019161044c565b820191906000526020600020905b81548152906001019060200180831161042f57829003601f168201915b5050505050905090565b60006104633384846109ee565b50600192915050565b6000610479848484610b12565b6001600160a01b0384166000908152600160209081526040808320338452909152902054828110156105035760405162461bcd60e51b815260206004820152602860248201527f45524332303a207472616e7366657220616d6f756e74206578636565647320616044820152676c6c6f77616e636560c01b60648201526084015b60405180910390fd5b61051085338584036109ee565b506001949350505050565b60009081526005602052604090206001015490565b6105398261051b565b6105438133610ce2565b61054d8383610d46565b505050565b6001600160a01b03811633146105c25760405162461bcd60e51b815260206004820152602f60248201527f416363657373436f6e74726f6c3a2063616e206f6e6c792072656e6f756e636560448201526e103937b632b9903337b91039b2b63360891b60648201526084016104fa565b6105cc8282610dcc565b5050565b3360008181526001602090815260408083206001600160a01b038716845290915281205490916104639185906106079086906112af565b6109ee565b61061760003361081e565b6106335760405162461bcd60e51b81526004016104fa90611281565b600680546001600160a01b0319166001600160a01b0383161790556040517f67d8422249b07c675063c3fcea2726f9884bbf0b823d1544a91e36614e41781d9061067e908390611209565b60405180910390a150565b6106a2600080516020620028998339815191523361081e565b6106be5760405162461bcd60e51b81526004016104fa90611281565b6001600160a01b03811660009081526007602052604090205460ff166106f65760405162461bcd60e51b81526004016104fa90611250565b6001600160a01b03166000908152600760205260409020805461ff001981166101009182900460ff1615909102179055565b610741600080516020620028998339815191523361081e565b61075d5760405162461bcd60e51b81526004016104fa90611281565b600033838360405161076e9061101b565b6001600160a01b0393841681529290911660208301526040820152606001604051809103906000f0801580156107a8573d6000803e3d6000fd5b50604080513381526001600160a01b03868116602083015283168183015290519192507f619b247fd25df695eff36b0d4f3404c04b084cfe052d022badc2011e0cb7cade919081900360600190a16001600160a01b03166000908152600760205260409020805461ffff19166101011790555050565b60009182526005602090815260408084206001600160a01b0393909316845291905290205460ff1690565b6060600480546103d390611329565b3360009081526001602090815260408083206001600160a01b0386168452909152812054828110156108da5760405162461bcd60e51b815260206004820152602560248201527f45524332303a2064656372656173656420616c6c6f77616e63652062656c6f77604482015264207a65726f60d81b60648201526084016104fa565b6108e733858584036109ee565b5060019392505050565b6000610463338484610b12565b6109078261051b565b6109118133610ce2565b61054d8383610dcc565b3360009081526007602052604081205460ff1661094a5760405162461bcd60e51b81526004016104fa90611250565b33600090815260076020526040902054610100900460ff166109a95760405162461bcd60e51b8152602060048201526018602482015277414e465456323a20496e616374697665204c697374696e6760401b60448201526064016104fa565b600080836109c3576006546001600160a01b0316866109d2565b60065486906001600160a01b03165b90925090506109e2828287610b12565b50600195945050505050565b6001600160a01b038316610a505760405162461bcd60e51b8152602060048201526024808201527f45524332303a20617070726f76652066726f6d20746865207a65726f206164646044820152637265737360e01b60648201526084016104fa565b6001600160a01b038216610ab15760405162461bcd60e51b815260206004820152602260248201527f45524332303a20617070726f766520746f20746865207a65726f206164647265604482015261737360f01b60648201526084016104fa565b6001600160a01b0383811660008181526001602090815260408083209487168084529482529182902085905590518481527f8c5be1e5ebec7d5bd14f71427d1e84f3dd0314c0f7b2291e5b200ac8c7c3b925910160405180910390a3505050565b6001600160a01b038316610b765760405162461bcd60e51b815260206004820152602560248201527f45524332303a207472616e736665722066726f6d20746865207a65726f206164604482015264647265737360d81b60648201526084016104fa565b6001600160a01b038216610bd85760405162461bcd60e51b815260206004820152602360248201527f45524332303a207472616e7366657220746f20746865207a65726f206164647260448201526265737360e81b60648201526084016104fa565b6001600160a01b03831660009081526020819052604090205481811015610c505760405162461bcd60e51b815260206004820152602660248201527f45524332303a207472616e7366657220616d6f756e7420657863656564732062604482015265616c616e636560d01b60648201526084016104fa565b6001600160a01b03808516600090815260208190526040808220858503905591851681529081208054849290610c879084906112af565b92505081905550826001600160a01b0316846001600160a01b03167fddf252ad1be2c89b69c2b068fc378daa952ba7f163c4a11628f55a4df523b3ef84604051610cd391815260200190565b60405180910390a35b50505050565b610cec828261081e565b6105cc57610d04816001600160a01b03166014610e33565b610d0f836020610e33565b604051602001610d2092919061119a565b60408051601f198184030181529082905262461bcd60e51b82526104fa9160040161121d565b610d50828261081e565b6105cc5760008281526005602090815260408083206001600160a01b03851684529091529020805460ff19166001179055610d883390565b6001600160a01b0316816001600160a01b0316837f2f8788117e7eff1d82e926ec794901d17c78024a50270940304540a733656f0d60405160405180910390a45050565b610dd6828261081e565b156105cc5760008281526005602090815260408083206001600160a01b0385168085529252808320805460ff1916905551339285917ff6391f5c32d9c69d2a47ea670b442974b53935d1edc7fd64eb21e047a839171b9190a45050565b60606000610e428360026112c7565b610e4d9060026112af565b6001600160401b03811115610e7257634e487b7160e01b600052604160045260246000fd5b6040519080825280601f01601f191660200182016040528015610e9c576020820181803683370190505b509050600360fc1b81600081518110610ec557634e487b7160e01b600052603260045260246000fd5b60200101906001600160f81b031916908160001a905350600f60fb1b81600181518110610f0257634e487b7160e01b600052603260045260246000fd5b60200101906001600160f81b031916908160001a9053506000610f268460026112c7565b610f319060016112af565b90505b6001811115610fc5576f181899199a1a9b1b9c1cb0b131b232b360811b85600f1660108110610f7357634e487b7160e01b600052603260045260246000fd5b1a60f81b828281518110610f9757634e487b7160e01b600052603260045260246000fd5b60200101906001600160f81b031916908160001a90535060049490941c93610fbe81611312565b9050610f34565b5083156110145760405162461bcd60e51b815260206004820181905260248201527f537472696e67733a20686578206c656e67746820696e73756666696369656e7460448201526064016104fa565b9392505050565b61151e806200137b83390190565b80356001600160a01b038116811461104057600080fd5b919050565b600060208284031215611056578081fd5b61101482611029565b60008060408385031215611071578081fd5b61107a83611029565b915061108860208401611029565b90509250929050565b6000806000606084860312156110a5578081fd5b6110ae84611029565b92506110bc60208501611029565b9150604084013590509250925092565b600080604083850312156110de578182fd5b6110e783611029565b946020939093013593505050565b600080600060608486031215611109578283fd5b61111284611029565b9250602084013591506040840135801515811461112d578182fd5b809150509250925092565b600060208284031215611149578081fd5b5035919050565b60008060408385031215611162578182fd5b8235915061108860208401611029565b600060208284031215611183578081fd5b81356001600160e01b031981168114611014578182fd5b76020b1b1b2b9b9a1b7b73a3937b61d1030b1b1b7bab73a1604d1b8152600083516111cc8160178501602088016112e6565b7001034b99036b4b9b9b4b733903937b6329607d1b60179184019182015283516111fd8160288401602088016112e6565b01602801949350505050565b6001600160a01b0391909116815260200190565b602081526000825180602084015261123c8160408501602087016112e6565b601f01601f19169190910160400192915050565b602080825260179082015276414e465456323a20496e76616c6964204c697374696e6760481b604082015260600190565b60208082526014908201527310539195158c8e88155b985d5d1a1bdc9a5e995960621b604082015260600190565b600082198211156112c2576112c2611364565b500190565b60008160001904831182151516156112e1576112e1611364565b500290565b60005b838110156113015781810151838201526020016112e9565b83811115610cdc5750506000910152565b60008161132157611321611364565b506000190190565b600181811c9082168061133d57607f821691505b6020821081141561135e57634e487b7160e01b600052602260045260246000fd5b50919050565b634e487b7160e01b600052601160045260246000fdfe608060405234801561001057600080fd5b5060405161151e38038061151e83398101604081905261002f91610093565b600080546001600160a01b039384166001600160a01b0319918216179091556002805494909316938116939093179091556001554260045560038054909116331790556100ce565b80516001600160a01b038116811461008e57600080fd5b919050565b6000806000606084860312156100a7578283fd5b6100b084610077565b92506100be60208501610077565b9150604084015190509250925092565b611441806100dd6000396000f3fe608060405234801561001057600080fd5b50600436106101285760003560e01c8063103a62ba1461012d5780632a421332146101425780633a5381b5146101a15780633ccfd60b146101c15780633fa4f245146101c95780634048a257146101e0578063409e2205146102135780634338fbaa14610245578063506f50bc1461024e57806354a499021461026157806355a373d614610274578063573c0bd3146102875780635d03147a1461029a578063635b2770146102a357806366666aa9146102b657806380e4cc9d146102bf578063880cdc31146102d25780638b0e9f3f146102e55780638da5cb5b146102ee5780639405dfdd14610301578063a02b161e1461030a578063a5edfb531461031d578063ae169a5014610330578063c24be7fb14610343575b600080fd5b61014061013b36600461114e565b610356565b005b61017f61015036600461117e565b600960209081526000928352604080842090915290825290208054600182015460029092015490919060ff1683565b6040805193845260208401929092521515908201526060015b60405180910390f35b6002546101b4906001600160a01b031681565b6040516101989190611202565b61014061038e565b6101d260055481565b604051908152602001610198565b6102036101ee3660046110df565b60076020526000908152604090205460ff1681565b6040519015158152602001610198565b61017f61022136600461114e565b60086020526000908152604090208054600182015460029092015490919060ff1683565b6101d260065481565b61014061025c36600461114e565b61053b565b61014061026f3660046111a9565b61056a565b6003546101b4906001600160a01b031681565b61014061029536600461114e565b61060d565b6101d260045481565b6101406102b13660046110df565b61063c565b6101d2600a5481565b6101406102cd3660046110df565b610688565b6101406102e03660046110df565b61076a565b6101d2600b5481565b6000546101b4906001600160a01b031681565b6101d260015481565b61014061031836600461114e565b610800565b61014061032b36600461114e565b610973565b61014061033e36600461114e565b610b20565b6101406103513660046111ca565b610d13565b6002546001600160a01b031633146103895760405162461bcd60e51b8152600401610380906112e1565b60405180910390fd5b600655565b6000546001600160a01b031633146103b85760405162461bcd60e51b8152600401610380906112e1565b4260045410156104085760405162461bcd60e51b815260206004820152601b60248201527a4c697374696e673a204f776e65727368697020657870697265642160281b6044820152606401610380565b600061043160065461042b620151804260045461042591906113cd565b90610f91565b90610fa4565b60035460405163e9dc65bb60e01b81529192506000916001600160a01b039091169063e9dc65bb9061046b9033908690869060040161122f565b602060405180830381600087803b15801561048557600080fd5b505af1158015610499573d6000803e3d6000fd5b505050506040513d601f19601f820116820180604052508101906104bd91906110f9565b9050806104dc5760405162461bcd60e51b81526004016103809061133f565b6000546040517f884edad9ce6fa2440d8a54cc123490eb96d2768479d49ff9c7366125a94243649161051b916001600160a01b03909116908590611216565b60405180910390a1600a546105309083610fb0565b600a55505042600455565b6002546001600160a01b031633146105655760405162461bcd60e51b8152600401610380906112e1565b600155565b6002546001600160a01b031633146105945760405162461bcd60e51b8152600401610380906112e1565b60648111156105e55760405162461bcd60e51b815260206004820152601d60248201527f4c697374696e673a20496e76616c6964207265776172642076616c75650000006044820152606401610380565b600091825260086020526040909120600180820192909255600201805460ff19169091179055565b6002546001600160a01b031633146106375760405162461bcd60e51b8152600401610380906112e1565b600555565b6002546001600160a01b031633146106665760405162461bcd60e51b8152600401610380906112e1565b600280546001600160a01b0319166001600160a01b0392909216919091179055565b6000546001600160a01b031633146106b25760405162461bcd60e51b8152600401610380906112e1565b4260045410156107015760405162461bcd60e51b815260206004820152601a602482015279131a5cdd1a5b99ce8813dddb995c9cda1a5c08195e1c1a5c995960321b6044820152606401610380565b6001600160a01b038116600081815260076020908152604091829020805460ff8082161560ff1990921682179092558351948552161515908301527f988d040d21ebfc430db6cf3c20bc0a6f4ff9d36f2cb7c6dea70424a709746734910160405180910390a150565b6002546001600160a01b031633146107945760405162461bcd60e51b8152600401610380906112e1565b42600454106107de5760405162461bcd60e51b81526020600482015260166024820152754f776e657273686970206e6f7420657870697265642160501b6044820152606401610380565b600080546001600160a01b0319166001600160a01b0392909216919091179055565b60035460405163e6d50cd760e01b81526000916001600160a01b03169063e6d50cd790610831903090600401611202565b604080518083038186803b15801561084857600080fd5b505afa15801561085c573d6000803e3d6000fd5b505050506040513d601f19601f820116820180604052508101906108809190611115565b915050806108a05760405162461bcd60e51b81526004016103809061130b565b60008281526009602090815260408083203384529091529020600281015460ff166108dd5760405162461bcd60e51b815260040161038090611278565b60018101546000848152600860205260409020546108fa91610fb0565b6000848152600860205260409020556001810154600b5461091a91610fb0565b600b5560006001820181905560028201805460ff1916905581556040517f46d17c3a7286a693e0dc0769e261984d3981e0f266eda030d0b63bcaa23e776d906109669033904290611216565b60405180910390a1505050565b6000546001600160a01b031633148061098d575042600454105b6109a95760405162461bcd60e51b8152600401610380906112e1565b60035460405163e9dc65bb60e01b81526000916001600160a01b03169063e9dc65bb906109df903390869060019060040161122f565b602060405180830381600087803b1580156109f957600080fd5b505af1158015610a0d573d6000803e3d6000fd5b505050506040513d601f19601f82011682018060405250810190610a3191906110f9565b905080610a505760405162461bcd60e51b81526004016103809061133f565b6004546000546001600160a01b031642821015610a7d57600080546001600160a01b031916331790554291505b600a54610a8a9085610fbc565b600a55600654600090610a9e908690610f91565b9050610ab7610ab08262015180610fa4565b8490610fbc565b6004819055600054604080516001600160a01b038087168252909216602083015281018590526060810191909152608081018690527fef4746b8d8b529d352fbea5e8f5194179982c1cb712ce4e35c471cfeaefb8bb49060a00160405180910390a15050505050565b60008181526009602090815260408083203384529091529020600281015460ff16610b5d5760405162461bcd60e51b815260040161038090611278565b6003546040516370a0823160e01b81526000916001600160a01b0316906370a0823190610b8e903390600401611202565b60206040518083038186803b158015610ba657600080fd5b505afa158015610bba573d6000803e3d6000fd5b505050506040513d601f19601f82011682018060405250810190610bde9190611166565b90508160010154811015610c045760405162461bcd60e51b8152600401610380906112aa565b6000610c108484610fc8565b60035460405163e9dc65bb60e01b81529192506000916001600160a01b039091169063e9dc65bb90610c4a9033908690869060040161122f565b602060405180830381600087803b158015610c6457600080fd5b505af1158015610c78573d6000803e3d6000fd5b505050506040513d601f19601f82011682018060405250810190610c9c91906110f9565b905080610cbb5760405162461bcd60e51b81526004016103809061133f565b83546040517f45c072aa05b9853b5a993de7a28bc332ee01404a628cec1a23ce0f659f842ef191610cf191339186914290611252565b60405180910390a1428455600a54610d099083610fb0565b600a555050505050565b60035460405163e6d50cd760e01b81526000916001600160a01b03169063e6d50cd790610d44903090600401611202565b604080518083038186803b158015610d5b57600080fd5b505afa158015610d6f573d6000803e3d6000fd5b505050506040513d601f19601f82011682018060405250810190610d939190611115565b91505080610db35760405162461bcd60e51b81526004016103809061130b565b60008381526008602052604090206002015460ff16610e145760405162461bcd60e51b815260206004820152601d60248201527f4c697374696e673a204f7074696f6e206e6f7420617661696c61626c650000006044820152606401610380565b6003546040516370a0823160e01b81526000916001600160a01b0316906370a0823190610e45903390600401611202565b60206040518083038186803b158015610e5d57600080fd5b505afa158015610e71573d6000803e3d6000fd5b505050506040513d601f19601f82011682018060405250810190610e959190611166565b905084811015610eb75760405162461bcd60e51b8152600401610380906112aa565b6000848152600960209081526040808320338452909152902083610ee9576001810154610ee49087610fb0565b610ef8565b6001810154610ef89087610fbc565b60018083019190915542825560028201805460ff19169091179055600085815260086020526040902054610f2c9087610fbc565b600086815260086020526040902055600b54610f489087610fbc565b600b556040517fb1ff33da568b8aef91249b2b57eb76b04eba1f8643e8bef5914442dbd7ccb2bf90610f81903390899089904290611252565b60405180910390a1505050505050565b6000610f9d828461138e565b9392505050565b6000610f9d82846113ae565b6000610f9d82846113cd565b6000610f9d8284611376565b600080610fe76005546104256064600b54610fa490919063ffffffff16565b90506056811115610ff6575060565b426004541080156110075750603281115b15611010575060325b600061102c606461042584600654610fa490919063ffffffff16565b60008681526008602090815260408083208151606081018352815480825260018084015495830186905260029093015460ff16151593820193909352908901549495509361108992610425919061042b9060649084908a90610fa4565b90506000620151808760000154426110a191906113cd565b6110ab919061138e565b90506110b78282610fa4565b98975050505050505050565b80356001600160a01b03811681146110da57600080fd5b919050565b6000602082840312156110f0578081fd5b610f9d826110c3565b60006020828403121561110a578081fd5b8151610f9d816113fa565b60008060408385031215611127578081fd5b8251611132816113fa565b6020840151909250611143816113fa565b809150509250929050565b60006020828403121561115f578081fd5b5035919050565b600060208284031215611177578081fd5b5051919050565b60008060408385031215611190578182fd5b823591506111a0602084016110c3565b90509250929050565b600080604083850312156111bb578182fd5b50508035926020909101359150565b6000806000606084860312156111de578081fd5b833592506020840135915060408401356111f7816113fa565b809150509250925092565b6001600160a01b0391909116815260200190565b6001600160a01b03929092168252602082015260400190565b6001600160a01b0393909316835260208301919091521515604082015260600190565b6001600160a01b0394909416845260208401929092526040830152606082015260800190565b6020808252601890820152774c697374696e673a2052656769737465722066697273742160401b604082015260600190565b6020808252601e908201527f4c697374696e673a20496e73756666696369656e742062616c616e6365210000604082015260600190565b60208082526010908201526f4c697374696e673a20556e617574682160801b604082015260600190565b6020808252601a90820152794c697374696e673a20496e616374697665206c697374696e672160301b604082015260600190565b6020808252601e908201527f4c697374696e673a20556e7375636365737366756c20617474656d7074210000604082015260600190565b60008219821115611389576113896113e4565b500190565b6000826113a957634e487b7160e01b81526012600452602481fd5b500490565b60008160001904831182151516156113c8576113c86113e4565b500290565b6000828210156113df576113df6113e4565b500390565b634e487b7160e01b600052601160045260246000fd5b801515811461140857600080fd5b5056fea2646970667358221220c9e8ccb49f2b8d062e91de5b59281508c739724c47adb91d88ee58b34149541e64736f6c63430008040033a95257aebefccffaada4758f028bce81ea992693be70592f620c4c9a0d9e715aa264697066735822122050df1c3e132826e3ac53f411a8650ee6d712a8a91dedb9f4afa9a6b4be41aaa664736f6c63430008040033",
  "devdoc": {
    "events": {
      "ListingCreation(address,address,address)": {
        "details": "Emitted a new Listing is created. `_validator` should be the caller,  `_owner` should be the specified address and `_listingAddress` is the newly created listing address"
      },
      "UpdateStakingAddr(address)": {
        "details": "Emitted when the staking address is updated, `_stakingAddr` should be the new address "
      }
    },
    "kind": "dev",
    "methods": {
      "allowance(address,address)": {
        "details": "See {IERC20-allowance}."
      },
      "approve(address,uint256)": {
        "details": "See {IERC20-approve}. Requirements: - `spender` cannot be the zero address."
      },
      "balanceOf(address)": {
        "details": "See {IERC20-balanceOf}."
      },
      "constructor": {
        "details": "Deployer has the default roles of DEFAULT_ADMIN_ROLE and VALIDATOR Staking address is set here"
      },
      "createListing(address,uint256)": {
        "details": "Create a new listing (the tokenized version of a real estate product)  Restricted to only validators A newly created listing is set with two properties: `_isCreated` and `_active` Listing validator shall be the validator address making the transaction. Owner of the listing shall be the specified address  Emits a {ListingCreation} event"
      },
      "decimals()": {
        "details": "Returns the number of decimals used to get its user representation. For example, if `decimals` equals `2`, a balance of `505` tokens should be displayed to a user as `5.05` (`505 / 10 ** 2`). Tokens usually opt for a value of 18, imitating the relationship between Ether and Wei. This is the value {ERC20} uses, unless this function is overridden; NOTE: This information is only used for _display_ purposes: it in no way affects any of the arithmetic of the contract, including {IERC20-balanceOf} and {IERC20-transfer}."
      },
      "decreaseAllowance(address,uint256)": {
        "details": "Atomically decreases the allowance granted to `spender` by the caller. This is an alternative to {approve} that can be used as a mitigation for problems described in {IERC20-approve}. Emits an {Approval} event indicating the updated allowance. Requirements: - `spender` cannot be the zero address. - `spender` must have allowance for the caller of at least `subtractedValue`."
      },
      "getRoleAdmin(bytes32)": {
        "details": "Returns the admin role that controls `role`. See {grantRole} and {revokeRole}. To change a role's admin, use {_setRoleAdmin}."
      },
      "grantRole(bytes32,address)": {
        "details": "Grants `role` to `account`. If `account` had not been already granted `role`, emits a {RoleGranted} event. Requirements: - the caller must have ``role``'s admin role."
      },
      "handleListingTx(address,uint256,bool)": {
        "details": "Handle transactions from listings and only from listings  If `_in` is true, _amount will be transfered from `_userAddr` to staking address Otherwise, `_amount` will be transfered from staking address to `_userAddr` Returns true if the transation is success Emits a {Transfer} event from IERC20"
      },
      "hasRole(bytes32,address)": {
        "details": "Returns `true` if `account` has been granted `role`."
      },
      "increaseAllowance(address,uint256)": {
        "details": "Atomically increases the allowance granted to `spender` by the caller. This is an alternative to {approve} that can be used as a mitigation for problems described in {IERC20-approve}. Emits an {Approval} event indicating the updated allowance. Requirements: - `spender` cannot be the zero address."
      },
      "name()": {
        "details": "Returns the name of the token."
      },
      "renounceRole(bytes32,address)": {
        "details": "Revokes `role` from the calling account. Roles are often managed via {grantRole} and {revokeRole}: this function's purpose is to provide a mechanism for accounts to lose their privileges if they are compromised (such as when a trusted device is misplaced). If the calling account had been granted `role`, emits a {RoleRevoked} event. Requirements: - the caller must be `account`."
      },
      "revokeRole(bytes32,address)": {
        "details": "Revokes `role` from `account`. If `account` had been granted `role`, emits a {RoleRevoked} event. Requirements: - the caller must have ``role``'s admin role."
      },
      "supportsInterface(bytes4)": {
        "details": "See {IERC165-supportsInterface}."
      },
      "symbol()": {
        "details": "Returns the symbol of the token, usually a shorter version of the name."
      },
      "toggleListingStatus(address)": {
        "details": "Toggle listing `_active` status. Shall be useful if there's a listing no longer in operation Restricted to only validators The `_listingAddr` must be the address of a created listing "
      },
      "totalSupply()": {
        "details": "See {IERC20-totalSupply}."
      },
      "transfer(address,uint256)": {
        "details": "See {IERC20-transfer}. Requirements: - `recipient` cannot be the zero address. - the caller must have a balance of at least `amount`."
      },
      "transferFrom(address,address,uint256)": {
        "details": "See {IERC20-transferFrom}. Emits an {Approval} event indicating the updated allowance. This is not required by the EIP. See the note at the beginning of {ERC20}. Requirements: - `sender` and `recipient` cannot be the zero address. - `sender` must have a balance of at least `amount`. - the caller must have allowance for ``sender``'s tokens of at least `amount`."
      },
      "updateStakingAddress(address)": {
        "details": "Update the funds address. Shall be handy if there's a need in changing the initial address, or the previous address is compromised."
      }
    },
    "stateVariables": {
      "VALIDATOR": {
        "details": "Validators are authorized accounts to handle listing"
      },
      "stakingAddress": {
        "details": "The funds address for paying out rewards and receiving payments"
      }
    },
    "version": 1
  },
  "userdoc": {
    "kind": "user",
    "methods": {},
    "version": 1
  },
  "storageLayout": {
    "storage": [
      {
        "astId": 395,
        "contract": "contracts/v2/ANFTV2.sol:ANFTV2",
        "label": "_balances",
        "offset": 0,
        "slot": "0",
        "type": "t_mapping(t_address,t_uint256)"
      },
      {
        "astId": 401,
        "contract": "contracts/v2/ANFTV2.sol:ANFTV2",
        "label": "_allowances",
        "offset": 0,
        "slot": "1",
        "type": "t_mapping(t_address,t_mapping(t_address,t_uint256))"
      },
      {
        "astId": 403,
        "contract": "contracts/v2/ANFTV2.sol:ANFTV2",
        "label": "_totalSupply",
        "offset": 0,
        "slot": "2",
        "type": "t_uint256"
      },
      {
        "astId": 405,
        "contract": "contracts/v2/ANFTV2.sol:ANFTV2",
        "label": "_name",
        "offset": 0,
        "slot": "3",
        "type": "t_string_storage"
      },
      {
        "astId": 407,
        "contract": "contracts/v2/ANFTV2.sol:ANFTV2",
        "label": "_symbol",
        "offset": 0,
        "slot": "4",
        "type": "t_string_storage"
      },
      {
        "astId": 24,
        "contract": "contracts/v2/ANFTV2.sol:ANFTV2",
        "label": "_roles",
        "offset": 0,
        "slot": "5",
        "type": "t_mapping(t_bytes32,t_struct(RoleData)19_storage)"
      },
      {
        "astId": 2331,
        "contract": "contracts/v2/ANFTV2.sol:ANFTV2",
        "label": "stakingAddress",
        "offset": 0,
        "slot": "6",
        "type": "t_address"
      },
      {
        "astId": 2341,
        "contract": "contracts/v2/ANFTV2.sol:ANFTV2",
        "label": "listingStatus",
        "offset": 0,
        "slot": "7",
        "type": "t_mapping(t_address,t_struct(ListingStatusModel)2336_storage)"
      }
    ],
    "types": {
      "t_address": {
        "encoding": "inplace",
        "label": "address",
        "numberOfBytes": "20"
      },
      "t_bool": {
        "encoding": "inplace",
        "label": "bool",
        "numberOfBytes": "1"
      },
      "t_bytes32": {
        "encoding": "inplace",
        "label": "bytes32",
        "numberOfBytes": "32"
      },
      "t_mapping(t_address,t_bool)": {
        "encoding": "mapping",
        "key": "t_address",
        "label": "mapping(address => bool)",
        "numberOfBytes": "32",
        "value": "t_bool"
      },
      "t_mapping(t_address,t_mapping(t_address,t_uint256))": {
        "encoding": "mapping",
        "key": "t_address",
        "label": "mapping(address => mapping(address => uint256))",
        "numberOfBytes": "32",
        "value": "t_mapping(t_address,t_uint256)"
      },
      "t_mapping(t_address,t_struct(ListingStatusModel)2336_storage)": {
        "encoding": "mapping",
        "key": "t_address",
        "label": "mapping(address => struct ANFTV2.ListingStatusModel)",
        "numberOfBytes": "32",
        "value": "t_struct(ListingStatusModel)2336_storage"
      },
      "t_mapping(t_address,t_uint256)": {
        "encoding": "mapping",
        "key": "t_address",
        "label": "mapping(address => uint256)",
        "numberOfBytes": "32",
        "value": "t_uint256"
      },
      "t_mapping(t_bytes32,t_struct(RoleData)19_storage)": {
        "encoding": "mapping",
        "key": "t_bytes32",
        "label": "mapping(bytes32 => struct AccessControl.RoleData)",
        "numberOfBytes": "32",
        "value": "t_struct(RoleData)19_storage"
      },
      "t_string_storage": {
        "encoding": "bytes",
        "label": "string",
        "numberOfBytes": "32"
      },
      "t_struct(ListingStatusModel)2336_storage": {
        "encoding": "inplace",
        "label": "struct ANFTV2.ListingStatusModel",
        "members": [
          {
            "astId": 2333,
            "contract": "contracts/v2/ANFTV2.sol:ANFTV2",
            "label": "_isCreated",
            "offset": 0,
            "slot": "0",
            "type": "t_bool"
          },
          {
            "astId": 2335,
            "contract": "contracts/v2/ANFTV2.sol:ANFTV2",
            "label": "_active",
            "offset": 1,
            "slot": "0",
            "type": "t_bool"
          }
        ],
        "numberOfBytes": "32"
      },
      "t_struct(RoleData)19_storage": {
        "encoding": "inplace",
        "label": "struct AccessControl.RoleData",
        "members": [
          {
            "astId": 16,
            "contract": "contracts/v2/ANFTV2.sol:ANFTV2",
            "label": "members",
            "offset": 0,
            "slot": "0",
            "type": "t_mapping(t_address,t_bool)"
          },
          {
            "astId": 18,
            "contract": "contracts/v2/ANFTV2.sol:ANFTV2",
            "label": "adminRole",
            "offset": 0,
            "slot": "1",
            "type": "t_bytes32"
          }
        ],
        "numberOfBytes": "64"
      },
      "t_uint256": {
        "encoding": "inplace",
        "label": "uint256",
        "numberOfBytes": "32"
      }
    }
  }
}