{
  "address": "0xa516bC1D2C9b179b25c6843Dc7b13687c57a2Fb1",
  "abi": [
    {
      "anonymous": false,
      "inputs": [
        {
          "indexed": false,
          "internalType": "address",
          "name": "previousAdmin",
          "type": "address"
        },
        {
          "indexed": false,
          "internalType": "address",
          "name": "newAdmin",
          "type": "address"
        }
      ],
      "name": "AdminChanged",
      "type": "event"
    },
    {
      "anonymous": false,
      "inputs": [
        {
          "indexed": true,
          "internalType": "address",
          "name": "owner",
          "type": "address"
        },
        {
          "indexed": true,
          "internalType": "address",
          "name": "spender",
          "type": "address"
        },
        {
          "indexed": false,
          "internalType": "uint256",
          "name": "value",
          "type": "uint256"
        }
      ],
      "name": "Approval",
      "type": "event"
    },
    {
      "anonymous": false,
      "inputs": [
        {
          "indexed": true,
          "internalType": "address",
          "name": "beacon",
          "type": "address"
        }
      ],
      "name": "BeaconUpgraded",
      "type": "event"
    },
    {
      "anonymous": false,
      "inputs": [
        {
          "indexed": false,
          "internalType": "address",
          "name": "_validator",
          "type": "address"
        },
        {
          "indexed": false,
          "internalType": "address",
          "name": "_owner",
          "type": "address"
        },
        {
          "indexed": false,
          "internalType": "address",
          "name": "_listingAddress",
          "type": "address"
        }
      ],
      "name": "ListingCreation",
      "type": "event"
    },
    {
      "anonymous": false,
      "inputs": [
        {
          "indexed": true,
          "internalType": "bytes32",
          "name": "role",
          "type": "bytes32"
        },
        {
          "indexed": true,
          "internalType": "bytes32",
          "name": "previousAdminRole",
          "type": "bytes32"
        },
        {
          "indexed": true,
          "internalType": "bytes32",
          "name": "newAdminRole",
          "type": "bytes32"
        }
      ],
      "name": "RoleAdminChanged",
      "type": "event"
    },
    {
      "anonymous": false,
      "inputs": [
        {
          "indexed": true,
          "internalType": "bytes32",
          "name": "role",
          "type": "bytes32"
        },
        {
          "indexed": true,
          "internalType": "address",
          "name": "account",
          "type": "address"
        },
        {
          "indexed": true,
          "internalType": "address",
          "name": "sender",
          "type": "address"
        }
      ],
      "name": "RoleGranted",
      "type": "event"
    },
    {
      "anonymous": false,
      "inputs": [
        {
          "indexed": true,
          "internalType": "bytes32",
          "name": "role",
          "type": "bytes32"
        },
        {
          "indexed": true,
          "internalType": "address",
          "name": "account",
          "type": "address"
        },
        {
          "indexed": true,
          "internalType": "address",
          "name": "sender",
          "type": "address"
        }
      ],
      "name": "RoleRevoked",
      "type": "event"
    },
    {
      "anonymous": false,
      "inputs": [
        {
          "indexed": true,
          "internalType": "address",
          "name": "from",
          "type": "address"
        },
        {
          "indexed": true,
          "internalType": "address",
          "name": "to",
          "type": "address"
        },
        {
          "indexed": false,
          "internalType": "uint256",
          "name": "value",
          "type": "uint256"
        }
      ],
      "name": "Transfer",
      "type": "event"
    },
    {
      "anonymous": false,
      "inputs": [
        {
          "indexed": false,
          "internalType": "address",
          "name": "_stakingAddr",
          "type": "address"
        }
      ],
      "name": "UpdateStakingAddr",
      "type": "event"
    },
    {
      "anonymous": false,
      "inputs": [
        {
          "indexed": true,
          "internalType": "address",
          "name": "implementation",
          "type": "address"
        }
      ],
      "name": "Upgraded",
      "type": "event"
    },
    {
      "inputs": [],
      "name": "DEFAULT_ADMIN_ROLE",
      "outputs": [
        {
          "internalType": "bytes32",
          "name": "",
          "type": "bytes32"
        }
      ],
      "stateMutability": "view",
      "type": "function"
    },
    {
      "inputs": [],
      "name": "VALIDATOR",
      "outputs": [
        {
          "internalType": "bytes32",
          "name": "",
          "type": "bytes32"
        }
      ],
      "stateMutability": "view",
      "type": "function"
    },
    {
      "inputs": [
        {
          "internalType": "address",
          "name": "owner",
          "type": "address"
        },
        {
          "internalType": "address",
          "name": "spender",
          "type": "address"
        }
      ],
      "name": "allowance",
      "outputs": [
        {
          "internalType": "uint256",
          "name": "",
          "type": "uint256"
        }
      ],
      "stateMutability": "view",
      "type": "function"
    },
    {
      "inputs": [
        {
          "internalType": "address",
          "name": "spender",
          "type": "address"
        },
        {
          "internalType": "uint256",
          "name": "amount",
          "type": "uint256"
        }
      ],
      "name": "approve",
      "outputs": [
        {
          "internalType": "bool",
          "name": "",
          "type": "bool"
        }
      ],
      "stateMutability": "nonpayable",
      "type": "function"
    },
    {
      "inputs": [
        {
          "internalType": "address",
          "name": "account",
          "type": "address"
        }
      ],
      "name": "balanceOf",
      "outputs": [
        {
          "internalType": "uint256",
          "name": "",
          "type": "uint256"
        }
      ],
      "stateMutability": "view",
      "type": "function"
    },
    {
      "inputs": [
        {
          "internalType": "address",
          "name": "_owner",
          "type": "address"
        },
        {
          "internalType": "uint256",
          "name": "_listingId",
          "type": "uint256"
        }
      ],
      "name": "createListing",
      "outputs": [],
      "stateMutability": "nonpayable",
      "type": "function"
    },
    {
      "inputs": [],
      "name": "decimals",
      "outputs": [
        {
          "internalType": "uint8",
          "name": "",
          "type": "uint8"
        }
      ],
      "stateMutability": "view",
      "type": "function"
    },
    {
      "inputs": [
        {
          "internalType": "address",
          "name": "spender",
          "type": "address"
        },
        {
          "internalType": "uint256",
          "name": "subtractedValue",
          "type": "uint256"
        }
      ],
      "name": "decreaseAllowance",
      "outputs": [
        {
          "internalType": "bool",
          "name": "",
          "type": "bool"
        }
      ],
      "stateMutability": "nonpayable",
      "type": "function"
    },
    {
      "inputs": [
        {
          "internalType": "bytes32",
          "name": "role",
          "type": "bytes32"
        }
      ],
      "name": "getRoleAdmin",
      "outputs": [
        {
          "internalType": "bytes32",
          "name": "",
          "type": "bytes32"
        }
      ],
      "stateMutability": "view",
      "type": "function"
    },
    {
      "inputs": [
        {
          "internalType": "bytes32",
          "name": "role",
          "type": "bytes32"
        },
        {
          "internalType": "address",
          "name": "account",
          "type": "address"
        }
      ],
      "name": "grantRole",
      "outputs": [],
      "stateMutability": "nonpayable",
      "type": "function"
    },
    {
      "inputs": [
        {
          "internalType": "address",
          "name": "_userAddr",
          "type": "address"
        },
        {
          "internalType": "uint256",
          "name": "_amount",
          "type": "uint256"
        },
        {
          "internalType": "bool",
          "name": "_in",
          "type": "bool"
        }
      ],
      "name": "handleListingTx",
      "outputs": [
        {
          "internalType": "bool",
          "name": "",
          "type": "bool"
        }
      ],
      "stateMutability": "nonpayable",
      "type": "function"
    },
    {
      "inputs": [
        {
          "internalType": "bytes32",
          "name": "role",
          "type": "bytes32"
        },
        {
          "internalType": "address",
          "name": "account",
          "type": "address"
        }
      ],
      "name": "hasRole",
      "outputs": [
        {
          "internalType": "bool",
          "name": "",
          "type": "bool"
        }
      ],
      "stateMutability": "view",
      "type": "function"
    },
    {
      "inputs": [
        {
          "internalType": "address",
          "name": "spender",
          "type": "address"
        },
        {
          "internalType": "uint256",
          "name": "addedValue",
          "type": "uint256"
        }
      ],
      "name": "increaseAllowance",
      "outputs": [
        {
          "internalType": "bool",
          "name": "",
          "type": "bool"
        }
      ],
      "stateMutability": "nonpayable",
      "type": "function"
    },
    {
      "inputs": [
        {
          "internalType": "address",
          "name": "_stakingAddr",
          "type": "address"
        }
      ],
      "name": "initialize",
      "outputs": [],
      "stateMutability": "nonpayable",
      "type": "function"
    },
    {
      "inputs": [
        {
          "internalType": "address",
          "name": "",
          "type": "address"
        }
      ],
      "name": "listingStatus",
      "outputs": [
        {
          "internalType": "bool",
          "name": "_isCreated",
          "type": "bool"
        },
        {
          "internalType": "bool",
          "name": "_active",
          "type": "bool"
        }
      ],
      "stateMutability": "view",
      "type": "function"
    },
    {
      "inputs": [],
      "name": "name",
      "outputs": [
        {
          "internalType": "string",
          "name": "",
          "type": "string"
        }
      ],
      "stateMutability": "view",
      "type": "function"
    },
    {
      "inputs": [
        {
          "internalType": "bytes32",
          "name": "role",
          "type": "bytes32"
        },
        {
          "internalType": "address",
          "name": "account",
          "type": "address"
        }
      ],
      "name": "renounceRole",
      "outputs": [],
      "stateMutability": "nonpayable",
      "type": "function"
    },
    {
      "inputs": [
        {
          "internalType": "bytes32",
          "name": "role",
          "type": "bytes32"
        },
        {
          "internalType": "address",
          "name": "account",
          "type": "address"
        }
      ],
      "name": "revokeRole",
      "outputs": [],
      "stateMutability": "nonpayable",
      "type": "function"
    },
    {
      "inputs": [],
      "name": "stakingAddress",
      "outputs": [
        {
          "internalType": "address",
          "name": "",
          "type": "address"
        }
      ],
      "stateMutability": "view",
      "type": "function"
    },
    {
      "inputs": [
        {
          "internalType": "bytes4",
          "name": "interfaceId",
          "type": "bytes4"
        }
      ],
      "name": "supportsInterface",
      "outputs": [
        {
          "internalType": "bool",
          "name": "",
          "type": "bool"
        }
      ],
      "stateMutability": "view",
      "type": "function"
    },
    {
      "inputs": [],
      "name": "symbol",
      "outputs": [
        {
          "internalType": "string",
          "name": "",
          "type": "string"
        }
      ],
      "stateMutability": "view",
      "type": "function"
    },
    {
      "inputs": [
        {
          "internalType": "address",
          "name": "_listingAddr",
          "type": "address"
        }
      ],
      "name": "toggleListingStatus",
      "outputs": [],
      "stateMutability": "nonpayable",
      "type": "function"
    },
    {
      "inputs": [],
      "name": "totalSupply",
      "outputs": [
        {
          "internalType": "uint256",
          "name": "",
          "type": "uint256"
        }
      ],
      "stateMutability": "view",
      "type": "function"
    },
    {
      "inputs": [
        {
          "internalType": "address",
          "name": "recipient",
          "type": "address"
        },
        {
          "internalType": "uint256",
          "name": "amount",
          "type": "uint256"
        }
      ],
      "name": "transfer",
      "outputs": [
        {
          "internalType": "bool",
          "name": "",
          "type": "bool"
        }
      ],
      "stateMutability": "nonpayable",
      "type": "function"
    },
    {
      "inputs": [
        {
          "internalType": "address",
          "name": "sender",
          "type": "address"
        },
        {
          "internalType": "address",
          "name": "recipient",
          "type": "address"
        },
        {
          "internalType": "uint256",
          "name": "amount",
          "type": "uint256"
        }
      ],
      "name": "transferFrom",
      "outputs": [
        {
          "internalType": "bool",
          "name": "",
          "type": "bool"
        }
      ],
      "stateMutability": "nonpayable",
      "type": "function"
    },
    {
      "inputs": [
        {
          "internalType": "address",
          "name": "_stakingAddr",
          "type": "address"
        }
      ],
      "name": "updateStakingAddress",
      "outputs": [],
      "stateMutability": "nonpayable",
      "type": "function"
    },
    {
      "inputs": [
        {
          "internalType": "address",
          "name": "newImplementation",
          "type": "address"
        }
      ],
      "name": "upgradeTo",
      "outputs": [],
      "stateMutability": "nonpayable",
      "type": "function"
    },
    {
      "inputs": [
        {
          "internalType": "address",
          "name": "newImplementation",
          "type": "address"
        },
        {
          "internalType": "bytes",
          "name": "data",
          "type": "bytes"
        }
      ],
      "name": "upgradeToAndCall",
      "outputs": [],
      "stateMutability": "payable",
      "type": "function"
    }
  ],
  "transactionHash": "0xdc8e06ce0c8d4f6b4cdd9c06a6d59e1385717b0280404f88c04c5744d4839f88",
  "args": [],
  "solcInputHash": "0866c95d02c1bf22c26b27558cf67b98",
  "bytecode": "0x60a06040523060601b60805234801561001757600080fd5b5060805160601c613a7661004b600039600081816108be01528181610901015281816109d30152610a160152613a766000f3fe608060405260043610620001db5760003560e01c80636b62393e11620000ff578063a9059cbb1162000095578063d7b4be24116200006c578063d7b4be241462000561578063dd62ed3e146200059d578063e6d50cd714620005e7578063e9dc65bb146200063d57600080fd5b8063a9059cbb14620004f2578063c4d66de81462000517578063d547741f146200053c57600080fd5b806391d1485411620000d657806391d14854146200047957806395d89b41146200049e578063a217fddf14620004b6578063a457c2d714620004cd57600080fd5b80636b62393e14620003f557806370a08231146200041a57806385e1c724146200045457600080fd5b8063313ce5671162000175578063393df8cb116200014c578063393df8cb146200036f5780633950935114620003945780634f1ef28614620003b95780635b06a1d114620003d057600080fd5b8063313ce567146200030757806336568abe14620003255780633659cfe6146200034a57600080fd5b806318160ddd11620001b657806318160ddd146200026657806323b872dd1462000287578063248a9ca314620002ac5780632f2ff15d14620002e057600080fd5b806301ffc9a714620001e057806306fdde03146200021a578063095ea7b31462000241575b600080fd5b348015620001ed57600080fd5b5062000205620001ff36600462002097565b62000662565b60405190151581526020015b60405180910390f35b3480156200022757600080fd5b50620002326200069a565b60405162000211919062002158565b3480156200024e57600080fd5b50620002056200026036600462001fe6565b62000734565b3480156200027357600080fd5b506035545b60405190815260200162000211565b3480156200029457600080fd5b5062000205620002a636600462001edd565b6200074c565b348015620002b957600080fd5b5062000278620002cb36600462002059565b60009081526097602052604090206001015490565b348015620002ed57600080fd5b5062000305620002ff36600462002072565b62000802565b005b3480156200031457600080fd5b506040516012815260200162000211565b3480156200033257600080fd5b50620003056200034436600462002072565b62000831565b3480156200035757600080fd5b50620003056200036936600462001e89565b620008b3565b3480156200037c57600080fd5b5062000278600080516020620039fa83398151915281565b348015620003a157600080fd5b5062000205620003b336600462001fe6565b62000988565b62000305620003ca36600462001f1d565b620009c8565b348015620003dd57600080fd5b5062000305620003ef36600462001e89565b62000a8a565b3480156200040257600080fd5b50620003056200041436600462001e89565b62000b0b565b3480156200042757600080fd5b50620002786200043936600462001e89565b6001600160a01b031660009081526033602052604090205490565b3480156200046157600080fd5b50620003056200047336600462001fe6565b62000bdc565b3480156200048657600080fd5b50620002056200049836600462002072565b62000cdb565b348015620004ab57600080fd5b506200023262000d06565b348015620004c357600080fd5b5062000278600081565b348015620004da57600080fd5b5062000205620004ec36600462001fe6565b62000d17565b348015620004ff57600080fd5b50620002056200051136600462001fe6565b62000db4565b3480156200052457600080fd5b50620003056200053636600462001e89565b62000dc3565b3480156200054957600080fd5b50620003056200055b36600462002072565b62000f00565b3480156200056e57600080fd5b5061012d5462000584906001600160a01b031681565b6040516001600160a01b03909116815260200162000211565b348015620005aa57600080fd5b5062000278620005bc36600462001ea6565b6001600160a01b03918216600090815260346020908152604080832093909416825291909152205490565b348015620005f457600080fd5b50620006256200060636600462001e89565b61012e6020526000908152604090205460ff8082169161010090041682565b60408051921515835290151560208301520162000211565b3480156200064a57600080fd5b50620002056200065c36600462002012565b62000f2a565b60006001600160e01b03198216637965db0b60e01b14806200069457506301ffc9a760e01b6001600160e01b03198316145b92915050565b606060368054620006ab906200242e565b80601f0160208091040260200160405190810160405280929190818152602001828054620006d9906200242e565b80156200072a5780601f10620006fe576101008083540402835291602001916200072a565b820191906000526020600020905b8154815290600101906020018083116200070c57829003601f168201915b5050505050905090565b60006200074333848462001037565b50600192915050565b60006200075b8484846200115f565b6001600160a01b038416600090815260346020908152604080832033845290915290205482811015620007e65760405162461bcd60e51b815260206004820152602860248201527f45524332303a207472616e7366657220616d6f756e74206578636565647320616044820152676c6c6f77616e636560c01b60648201526084015b60405180910390fd5b620007f5853385840362001037565b60019150505b9392505050565b60008281526097602052604090206001015462000820813362001338565b6200082c8383620013a7565b505050565b6001600160a01b0381163314620008a35760405162461bcd60e51b815260206004820152602f60248201527f416363657373436f6e74726f6c3a2063616e206f6e6c792072656e6f756e636560448201526e103937b632b9903337b91039b2b63360891b6064820152608401620007dd565b620008af828262001431565b5050565b306001600160a01b037f0000000000000000000000000000000000000000000000000000000000000000161415620008ff5760405162461bcd60e51b8152600401620007dd906200218d565b7f00000000000000000000000000000000000000000000000000000000000000006001600160a01b0316620009336200149b565b6001600160a01b0316146200095c5760405162461bcd60e51b8152600401620007dd90620021d9565b6200096781620014c9565b604080516000808252602082019092526200098591839190620014d7565b50565b3360008181526034602090815260408083206001600160a01b0387168452909152812054909162000743918590620009c2908690620022a0565b62001037565b306001600160a01b037f000000000000000000000000000000000000000000000000000000000000000016141562000a145760405162461bcd60e51b8152600401620007dd906200218d565b7f00000000000000000000000000000000000000000000000000000000000000006001600160a01b031662000a486200149b565b6001600160a01b03161462000a715760405162461bcd60e51b8152600401620007dd90620021d9565b62000a7c82620014c9565b620008af82826001620014d7565b62000a9760003362000cdb565b62000ab65760405162461bcd60e51b8152600401620007dd9062002273565b61012d80546001600160a01b0319166001600160a01b0383169081179091556040519081527f67d8422249b07c675063c3fcea2726f9884bbf0b823d1544a91e36614e41781d9060200160405180910390a150565b62000b26600080516020620039fa8339815191523362000cdb565b62000b455760405162461bcd60e51b8152600401620007dd9062002273565b6001600160a01b038116600090815261012e602052604090205460ff1662000ba95760405162461bcd60e51b8152602060048201526016602482015275546f6b656e3a20496e76616c6964204c697374696e6760501b6044820152606401620007dd565b6001600160a01b0316600090815261012e60205260409020805461ff001981166101009182900460ff1615909102179055565b62000bf7600080516020620039fa8339815191523362000cdb565b62000c165760405162461bcd60e51b8152600401620007dd9062002273565b600033838360405162000c299062001db8565b6001600160a01b0393841681529290911660208301526040820152606001604051809103906000f08015801562000c64573d6000803e3d6000fd5b50604080513381526001600160a01b03868116602083015283168183015290519192507f619b247fd25df695eff36b0d4f3404c04b084cfe052d022badc2011e0cb7cade919081900360600190a16001600160a01b0316600090815261012e60205260409020805461ffff19166101011790555050565b60009182526097602090815260408084206001600160a01b0393909316845291905290205460ff1690565b606060378054620006ab906200242e565b3360009081526034602090815260408083206001600160a01b03861684529091528120548281101562000d9b5760405162461bcd60e51b815260206004820152602560248201527f45524332303a2064656372656173656420616c6c6f77616e63652062656c6f77604482015264207a65726f60d81b6064820152608401620007dd565b62000daa338585840362001037565b5060019392505050565b6000620007433384846200115f565b600054610100900460ff168062000ddd575060005460ff16155b62000dfc5760405162461bcd60e51b8152600401620007dd9062002225565b600054610100900460ff1615801562000e1f576000805461ffff19166101011790555b62000e2962001633565b62000e33620016b8565b62000e7d6040518060400160405280600a81526020016920a7232a102a37b5b2b760b11b815250604051806040016040528060048152602001631053919560e21b8152506200171e565b62000ea63362000e906012600a62002304565b62000ea09063496ed400620023c3565b620017a7565b61012d80546001600160a01b0319166001600160a01b03841617905562000ecf6000336200188c565b62000eea600080516020620039fa833981519152336200188c565b8015620008af576000805461ff00191690555050565b60008281526097602052604090206001015462000f1e813362001338565b6200082c838362001431565b33600090815261012e602052604081205460ff1662000f855760405162461bcd60e51b8152602060048201526016602482015275546f6b656e3a20496e76616c6964204c697374696e6760501b6044820152606401620007dd565b33600090815261012e6020526040902054610100900460ff1662000fec5760405162461bcd60e51b815260206004820152601760248201527f546f6b656e3a20496e616374697665204c697374696e670000000000000000006044820152606401620007dd565b60008083620010095761012d546001600160a01b03168662001019565b61012d5486906001600160a01b03165b90925090506200102b8282876200115f565b50600195945050505050565b6001600160a01b0383166200109b5760405162461bcd60e51b8152602060048201526024808201527f45524332303a20617070726f76652066726f6d20746865207a65726f206164646044820152637265737360e01b6064820152608401620007dd565b6001600160a01b038216620010fe5760405162461bcd60e51b815260206004820152602260248201527f45524332303a20617070726f766520746f20746865207a65726f206164647265604482015261737360f01b6064820152608401620007dd565b6001600160a01b0383811660008181526034602090815260408083209487168084529482529182902085905590518481527f8c5be1e5ebec7d5bd14f71427d1e84f3dd0314c0f7b2291e5b200ac8c7c3b925910160405180910390a3505050565b6001600160a01b038316620011c55760405162461bcd60e51b815260206004820152602560248201527f45524332303a207472616e736665722066726f6d20746865207a65726f206164604482015264647265737360d81b6064820152608401620007dd565b6001600160a01b038216620012295760405162461bcd60e51b815260206004820152602360248201527f45524332303a207472616e7366657220746f20746865207a65726f206164647260448201526265737360e81b6064820152608401620007dd565b6001600160a01b03831660009081526033602052604090205481811015620012a35760405162461bcd60e51b815260206004820152602660248201527f45524332303a207472616e7366657220616d6f756e7420657863656564732062604482015265616c616e636560d01b6064820152608401620007dd565b6001600160a01b03808516600090815260336020526040808220858503905591851681529081208054849290620012dc908490620022a0565b92505081905550826001600160a01b0316846001600160a01b03167fddf252ad1be2c89b69c2b068fc378daa952ba7f163c4a11628f55a4df523b3ef846040516200132991815260200190565b60405180910390a35b50505050565b62001344828262000cdb565b620008af576200135f816001600160a01b0316601462001898565b6200136c83602062001898565b6040516020016200137f929190620020df565b60408051601f198184030181529082905262461bcd60e51b8252620007dd9160040162002158565b620013b3828262000cdb565b620008af5760008281526097602090815260408083206001600160a01b03851684529091529020805460ff19166001179055620013ed3390565b6001600160a01b0316816001600160a01b0316837f2f8788117e7eff1d82e926ec794901d17c78024a50270940304540a733656f0d60405160405180910390a45050565b6200143d828262000cdb565b15620008af5760008281526097602090815260408083206001600160a01b0385168085529252808320805460ff1916905551339285917ff6391f5c32d9c69d2a47ea670b442974b53935d1edc7fd64eb21e047a839171b9190a45050565b7f360894a13ba1a3210667c828492db98dca3e2076cc3735a920a3ca505d382bbc546001600160a01b031690565b6000620008af813362001338565b6000620014e36200149b565b9050620014f08462001a8e565b600083511180620014fe5750815b15620015125762001510848462001b35565b505b7f4910fdfa16fed3260ed0e7147f7cc6da11a60208b5b9406d12a635614ffd9143805460ff166200162c57805460ff191660011781556040516001600160a01b03831660248201526200159490869060440160408051601f198184030181529190526020810180516001600160e01b0316631b2ce7f360e11b17905262001b35565b50805460ff19168155620015a76200149b565b6001600160a01b0316826001600160a01b031614620016215760405162461bcd60e51b815260206004820152602f60248201527f45524331393637557067726164653a207570677261646520627265616b73206660448201526e75727468657220757067726164657360881b6064820152608401620007dd565b6200162c8562001c29565b5050505050565b600054610100900460ff16806200164d575060005460ff16155b6200166c5760405162461bcd60e51b8152600401620007dd9062002225565b600054610100900460ff161580156200168f576000805461ffff19166101011790555b6200169962001c6b565b620016a362001c6b565b801562000985576000805461ff001916905550565b600054610100900460ff1680620016d2575060005460ff16155b620016f15760405162461bcd60e51b8152600401620007dd9062002225565b600054610100900460ff1615801562001714576000805461ffff19166101011790555b6200168f62001c6b565b600054610100900460ff168062001738575060005460ff16155b620017575760405162461bcd60e51b8152600401620007dd9062002225565b600054610100900460ff161580156200177a576000805461ffff19166101011790555b6200178462001c6b565b62001790838362001cdb565b80156200082c576000805461ff0019169055505050565b6001600160a01b038216620017ff5760405162461bcd60e51b815260206004820152601f60248201527f45524332303a206d696e7420746f20746865207a65726f2061646472657373006044820152606401620007dd565b8060356000828254620018139190620022a0565b90915550506001600160a01b0382166000908152603360205260408120805483929062001842908490620022a0565b90915550506040518181526001600160a01b038316906000907fddf252ad1be2c89b69c2b068fc378daa952ba7f163c4a11628f55a4df523b3ef9060200160405180910390a35050565b620008af8282620013a7565b60606000620018a9836002620023c3565b620018b6906002620022a0565b67ffffffffffffffff811115620018dd57634e487b7160e01b600052604160045260246000fd5b6040519080825280601f01601f19166020018201604052801562001908576020820181803683370190505b509050600360fc1b816000815181106200193257634e487b7160e01b600052603260045260246000fd5b60200101906001600160f81b031916908160001a905350600f60fb1b816001815181106200197057634e487b7160e01b600052603260045260246000fd5b60200101906001600160f81b031916908160001a905350600062001996846002620023c3565b620019a3906001620022a0565b90505b600181111562001a3d576f181899199a1a9b1b9c1cb0b131b232b360811b85600f1660108110620019e757634e487b7160e01b600052603260045260246000fd5b1a60f81b82828151811062001a0c57634e487b7160e01b600052603260045260246000fd5b60200101906001600160f81b031916908160001a90535060049490941c9362001a358162002414565b9050620019a6565b508315620007fb5760405162461bcd60e51b815260206004820181905260248201527f537472696e67733a20686578206c656e67746820696e73756666696369656e746044820152606401620007dd565b803b62001af45760405162461bcd60e51b815260206004820152602d60248201527f455243313936373a206e657720696d706c656d656e746174696f6e206973206e60448201526c1bdd08184818dbdb9d1c9858dd609a1b6064820152608401620007dd565b7f360894a13ba1a3210667c828492db98dca3e2076cc3735a920a3ca505d382bbc80546001600160a01b0319166001600160a01b0392909216919091179055565b6060823b62001b965760405162461bcd60e51b815260206004820152602660248201527f416464726573733a2064656c65676174652063616c6c20746f206e6f6e2d636f6044820152651b9d1c9858dd60d21b6064820152608401620007dd565b600080846001600160a01b03168460405162001bb39190620020c1565b600060405180830381855af49150503d806000811462001bf0576040519150601f19603f3d011682016040523d82523d6000602084013e62001bf5565b606091505b509150915062001c20828260405180606001604052806027815260200162003a1a6027913962001d7a565b95945050505050565b62001c348162001a8e565b6040516001600160a01b038216907fbc7cd75a20ee27fd9adebab32041f755214dbc6bffa90cc0225b39da2e5c2d3b90600090a250565b600054610100900460ff168062001c85575060005460ff16155b62001ca45760405162461bcd60e51b8152600401620007dd9062002225565b600054610100900460ff16158015620016a3576000805461ffff1916610101179055801562000985576000805461ff001916905550565b600054610100900460ff168062001cf5575060005460ff16155b62001d145760405162461bcd60e51b8152600401620007dd9062002225565b600054610100900460ff1615801562001d37576000805461ffff19166101011790555b825162001d4c90603690602086019062001dc6565b50815162001d6290603790602085019062001dc6565b5080156200082c576000805461ff0019169055505050565b6060831562001d8b575081620007fb565b82511562001d9c5782518084602001fd5b8160405162461bcd60e51b8152600401620007dd919062002158565b611562806200249883390190565b82805462001dd4906200242e565b90600052602060002090601f01602090048101928262001df8576000855562001e43565b82601f1062001e1357805160ff191683800117855562001e43565b8280016001018555821562001e43579182015b8281111562001e4357825182559160200191906001019062001e26565b5062001e5192915062001e55565b5090565b5b8082111562001e51576000815560010162001e56565b80356001600160a01b038116811462001e8457600080fd5b919050565b60006020828403121562001e9b578081fd5b620007fb8262001e6c565b6000806040838503121562001eb9578081fd5b62001ec48362001e6c565b915062001ed46020840162001e6c565b90509250929050565b60008060006060848603121562001ef2578081fd5b62001efd8462001e6c565b925062001f0d6020850162001e6c565b9150604084013590509250925092565b6000806040838503121562001f30578182fd5b62001f3b8362001e6c565b9150602083013567ffffffffffffffff8082111562001f58578283fd5b818501915085601f83011262001f6c578283fd5b81358181111562001f815762001f8162002481565b604051601f8201601f19908116603f0116810190838211818310171562001fac5762001fac62002481565b8160405282815288602084870101111562001fc5578586fd5b82602086016020830137856020848301015280955050505050509250929050565b6000806040838503121562001ff9578182fd5b620020048362001e6c565b946020939093013593505050565b60008060006060848603121562002027578283fd5b620020328462001e6c565b925060208401359150604084013580151581146200204e578182fd5b809150509250925092565b6000602082840312156200206b578081fd5b5035919050565b6000806040838503121562002085578182fd5b8235915062001ed46020840162001e6c565b600060208284031215620020a9578081fd5b81356001600160e01b031981168114620007fb578182fd5b60008251620020d5818460208701620023e5565b9190910192915050565b7f416363657373436f6e74726f6c3a206163636f756e742000000000000000000081526000835162002119816017850160208801620023e5565b7001034b99036b4b9b9b4b733903937b6329607d1b60179184019182015283516200214c816028840160208801620023e5565b01602801949350505050565b602081526000825180602084015262002179816040850160208701620023e5565b601f01601f19169190910160400192915050565b6020808252602c908201527f46756e6374696f6e206d7573742062652063616c6c6564207468726f7567682060408201526b19195b1959d85d1958d85b1b60a21b606082015260800190565b6020808252602c908201527f46756e6374696f6e206d7573742062652063616c6c6564207468726f7567682060408201526b6163746976652070726f787960a01b606082015260800190565b6020808252602e908201527f496e697469616c697a61626c653a20636f6e747261637420697320616c72656160408201526d191e481a5b9a5d1a585b1a5e995960921b606082015260800190565b602080825260139082015272151bdad95b8e88155b985d5d1a1bdc9a5e9959606a1b604082015260600190565b60008219821115620022b657620022b66200246b565b500190565b600181815b80851115620022fc578160001904821115620022e057620022e06200246b565b80851615620022ee57918102915b93841c9390800290620022c0565b509250929050565b6000620007fb60ff841683600082620023205750600162000694565b816200232f5750600062000694565b8160018114620023485760028114620023535762002373565b600191505062000694565b60ff8411156200236757620023676200246b565b50506001821b62000694565b5060208310610133831016604e8410600b841016171562002398575081810a62000694565b620023a48383620022bb565b8060001904821115620023bb57620023bb6200246b565b029392505050565b6000816000190483118215151615620023e057620023e06200246b565b500290565b60005b8381101562002402578181015183820152602001620023e8565b83811115620013325750506000910152565b6000816200242657620024266200246b565b506000190190565b600181811c908216806200244357607f821691505b602082108114156200246557634e487b7160e01b600052602260045260246000fd5b50919050565b634e487b7160e01b600052601160045260246000fd5b634e487b7160e01b600052604160045260246000fdfe608060405234801561001057600080fd5b5060405161156238038061156283398101604081905261002f91610093565b600080546001600160a01b039384166001600160a01b0319918216179091556002805494909316938116939093179091556001554260045560038054909116331790556100ce565b80516001600160a01b038116811461008e57600080fd5b919050565b6000806000606084860312156100a7578283fd5b6100b084610077565b92506100be60208501610077565b9150604084015190509250925092565b611485806100dd6000396000f3fe608060405234801561001057600080fd5b50600436106101585760003560e01c80635d03147a116100c35780638da5cb5b1161007c5780638da5cb5b146103295780639405dfdd1461033c578063a02b161e14610345578063a5edfb5314610358578063ae169a501461036b578063c24be7fb1461037e57600080fd5b80635d03147a146102d5578063635b2770146102de57806366666aa9146102f157806380e4cc9d146102fa578063880cdc311461030d5780638b0e9f3f1461032057600080fd5b8063409e220511610115578063409e22051461024e5780634338fbaa14610280578063506f50bc1461028957806354a499021461029c57806355a373d6146102af578063573c0bd3146102c257600080fd5b8063103a62ba1461015d5780632a421332146101725780633a5381b5146101d15780633ccfd60b146101fc5780633fa4f245146102045780634048a2571461021b575b600080fd5b61017061016b3660046112a5565b610391565b005b6101af6101803660046112d5565b600960209081526000928352604080842090915290825290208054600182015460029092015490919060ff1683565b6040805193845260208401929092521515908201526060015b60405180910390f35b6002546101e4906001600160a01b031681565b6040516001600160a01b0390911681526020016101c8565b6101706103c9565b61020d60055481565b6040519081526020016101c8565b61023e610229366004611236565b60076020526000908152604090205460ff1681565b60405190151581526020016101c8565b6101af61025c3660046112a5565b60086020526000908152604090208054600182015460029092015490919060ff1683565b61020d60065481565b6101706102973660046112a5565b61057b565b6101706102aa366004611300565b6105aa565b6003546101e4906001600160a01b031681565b6101706102d03660046112a5565b61064d565b61020d60045481565b6101706102ec366004611236565b61067c565b61020d600a5481565b610170610308366004611236565b6106c8565b61017061031b366004611236565b6107ad565b61020d600b5481565b6000546101e4906001600160a01b031681565b61020d60015481565b6101706103533660046112a5565b610843565b6101706103663660046112a5565b610a0a565b6101706103793660046112a5565b610bb4565b61017061038c366004611321565b610e0b565b6002546001600160a01b031633146103c45760405162461bcd60e51b81526004016103bb90611359565b60405180910390fd5b600655565b6000546001600160a01b031633146103f35760405162461bcd60e51b81526004016103bb90611359565b4260045410156104455760405162461bcd60e51b815260206004820152601b60248201527f4c697374696e673a204f776e657273686970206578706972656421000000000060448201526064016103bb565b600061046e60065461046862015180426004546104629190611411565b906110e8565b906110fb565b60035460405163e9dc65bb60e01b8152336004820152602481018390526000604482018190529293506001600160a01b039091169063e9dc65bb90606401602060405180830381600087803b1580156104c657600080fd5b505af11580156104da573d6000803e3d6000fd5b505050506040513d601f19601f820116820180604052508101906104fe9190611250565b90508061051d5760405162461bcd60e51b81526004016103bb90611383565b600054604080516001600160a01b039092168252602082018490527f884edad9ce6fa2440d8a54cc123490eb96d2768479d49ff9c7366125a9424364910160405180910390a1600a546105709083611107565b600a55505042600455565b6002546001600160a01b031633146105a55760405162461bcd60e51b81526004016103bb90611359565b600155565b6002546001600160a01b031633146105d45760405162461bcd60e51b81526004016103bb90611359565b60648111156106255760405162461bcd60e51b815260206004820152601d60248201527f4c697374696e673a20496e76616c6964207265776172642076616c756500000060448201526064016103bb565b600091825260086020526040909120600180820192909255600201805460ff19169091179055565b6002546001600160a01b031633146106775760405162461bcd60e51b81526004016103bb90611359565b600555565b6002546001600160a01b031633146106a65760405162461bcd60e51b81526004016103bb90611359565b600280546001600160a01b0319166001600160a01b0392909216919091179055565b6000546001600160a01b031633146106f25760405162461bcd60e51b81526004016103bb90611359565b4260045410156107445760405162461bcd60e51b815260206004820152601a60248201527f4c697374696e673a204f776e657273686970206578706972656400000000000060448201526064016103bb565b6001600160a01b038116600081815260076020908152604091829020805460ff8082161560ff1990921682179092558351948552161515908301527f988d040d21ebfc430db6cf3c20bc0a6f4ff9d36f2cb7c6dea70424a709746734910160405180910390a150565b6002546001600160a01b031633146107d75760405162461bcd60e51b81526004016103bb90611359565b42600454106108215760405162461bcd60e51b81526020600482015260166024820152754f776e657273686970206e6f7420657870697265642160501b60448201526064016103bb565b600080546001600160a01b0319166001600160a01b0392909216919091179055565b60035460405163e6d50cd760e01b81523060048201526000916001600160a01b03169063e6d50cd790602401604080518083038186803b15801561088657600080fd5b505afa15801561089a573d6000803e3d6000fd5b505050506040513d601f19601f820116820180604052508101906108be919061126c565b9150508061090e5760405162461bcd60e51b815260206004820152601a60248201527f4c697374696e673a20496e616374697665206c697374696e672100000000000060448201526064016103bb565b60008281526009602090815260408083203384529091529020600281015460ff166109765760405162461bcd60e51b81526020600482015260186024820152774c697374696e673a2052656769737465722066697273742160401b60448201526064016103bb565b600181015460008481526008602052604090205461099391611107565b6000848152600860205260409020556001810154600b546109b391611107565b600b5560006001820181905560028201805460ff191690558155604080513381524260208201527f46d17c3a7286a693e0dc0769e261984d3981e0f266eda030d0b63bcaa23e776d910160405180910390a1505050565b6000546001600160a01b0316331480610a24575042600454105b610a405760405162461bcd60e51b81526004016103bb90611359565b60035460405163e9dc65bb60e01b815233600482015260248101839052600160448201526000916001600160a01b03169063e9dc65bb90606401602060405180830381600087803b158015610a9457600080fd5b505af1158015610aa8573d6000803e3d6000fd5b505050506040513d601f19601f82011682018060405250810190610acc9190611250565b905080610aeb5760405162461bcd60e51b81526004016103bb90611383565b6004546000546001600160a01b031642821015610b1857600080546001600160a01b031916331790554291505b600a54610b259085611113565b600a55600654600090610b399086906110e8565b9050610b52610b4b82620151806110fb565b8490611113565b6004819055600054604080516001600160a01b0380871682529092166020830152810185905260608101919091527f6c39327076b48f6ec16ef8a17bec7d8c4d62bab4c6d8b999cc3a974af10d4fb99060800160405180910390a15050505050565b60008181526009602090815260408083203384529091529020600281015460ff16610c1c5760405162461bcd60e51b81526020600482015260186024820152774c697374696e673a2052656769737465722066697273742160401b60448201526064016103bb565b6003546040516370a0823160e01b81523360048201526000916001600160a01b0316906370a082319060240160206040518083038186803b158015610c6057600080fd5b505afa158015610c74573d6000803e3d6000fd5b505050506040513d601f19601f82011682018060405250810190610c9891906112bd565b90508160010154811015610cee5760405162461bcd60e51b815260206004820152601e60248201527f4c697374696e673a20496e73756666696369656e742062616c616e636521000060448201526064016103bb565b6000610cfa848461111f565b60035460405163e9dc65bb60e01b8152336004820152602481018390526000604482018190529293506001600160a01b039091169063e9dc65bb90606401602060405180830381600087803b158015610d5257600080fd5b505af1158015610d66573d6000803e3d6000fd5b505050506040513d601f19601f82011682018060405250810190610d8a9190611250565b905080610da95760405162461bcd60e51b81526004016103bb90611383565b8354604080513381526020810185905280820192909252426060830152517f45c072aa05b9853b5a993de7a28bc332ee01404a628cec1a23ce0f659f842ef19181900360800190a1428455600a54610e019083611107565b600a555050505050565b60035460405163e6d50cd760e01b81523060048201526000916001600160a01b03169063e6d50cd790602401604080518083038186803b158015610e4e57600080fd5b505afa158015610e62573d6000803e3d6000fd5b505050506040513d601f19601f82011682018060405250810190610e86919061126c565b91505080610ed65760405162461bcd60e51b815260206004820152601a60248201527f4c697374696e673a20496e616374697665206c697374696e672100000000000060448201526064016103bb565b60008381526008602052604090206002015460ff16610f375760405162461bcd60e51b815260206004820152601d60248201527f4c697374696e673a204f7074696f6e206e6f7420617661696c61626c6500000060448201526064016103bb565b6003546040516370a0823160e01b81523360048201526000916001600160a01b0316906370a082319060240160206040518083038186803b158015610f7b57600080fd5b505afa158015610f8f573d6000803e3d6000fd5b505050506040513d601f19601f82011682018060405250810190610fb391906112bd565b9050848110156110055760405162461bcd60e51b815260206004820152601e60248201527f4c697374696e673a20496e73756666696369656e742062616c616e636521000060448201526064016103bb565b60008481526009602090815260408083203384529091529020836110375760018101546110329087611107565b611046565b60018101546110469087611113565b60018083019190915542825560028201805460ff1916909117905560008581526008602052604090205461107a9087611113565b600086815260086020526040902055600b546110969087611113565b600b5560408051338152602081018890529081018690524260608201527fb1ff33da568b8aef91249b2b57eb76b04eba1f8643e8bef5914442dbd7ccb2bf9060800160405180910390a1505050505050565b60006110f482846113d2565b9392505050565b60006110f482846113f2565b60006110f48284611411565b60006110f482846113ba565b60008061113e6005546104626064600b546110fb90919063ffffffff16565b9050605681111561114d575060565b4260045410801561115e5750603281115b15611167575060325b60006111836064610462846006546110fb90919063ffffffff16565b60008681526008602090815260408083208151606081018352815480825260018084015495830186905260029093015460ff1615159382019390935290890154949550936111e09261046291906104689060649084908a906110fb565b90506000620151808760000154426111f89190611411565b61120291906113d2565b905061120e82826110fb565b98975050505050505050565b80356001600160a01b038116811461123157600080fd5b919050565b600060208284031215611247578081fd5b6110f48261121a565b600060208284031215611261578081fd5b81516110f48161143e565b6000806040838503121561127e578081fd5b82516112898161143e565b602084015190925061129a8161143e565b809150509250929050565b6000602082840312156112b6578081fd5b5035919050565b6000602082840312156112ce578081fd5b5051919050565b600080604083850312156112e7578182fd5b823591506112f76020840161121a565b90509250929050565b60008060408385031215611312578182fd5b50508035926020909101359150565b600080600060608486031215611335578081fd5b8335925060208401359150604084013561134e8161143e565b809150509250925092565b60208082526010908201526f4c697374696e673a20556e617574682160801b604082015260600190565b6020808252601e908201527f4c697374696e673a20556e7375636365737366756c20617474656d7074210000604082015260600190565b600082198211156113cd576113cd611428565b500190565b6000826113ed57634e487b7160e01b81526012600452602481fd5b500490565b600081600019048311821515161561140c5761140c611428565b500290565b60008282101561142357611423611428565b500390565b634e487b7160e01b600052601160045260246000fd5b801515811461144c57600080fd5b5056fea2646970667358221220471bcc2ea2273f053817057fc55b3d42dbbf329925df68f105b96e030678d51764736f6c63430008040033a95257aebefccffaada4758f028bce81ea992693be70592f620c4c9a0d9e715a416464726573733a206c6f772d6c6576656c2064656c65676174652063616c6c206661696c6564a2646970667358221220be333b36328ea572c411c3ba1457f915d55e66c8405975a5db97af331f93ea5364736f6c63430008040033",
  "devdoc": {
    "events": {
      "ListingCreation(address,address,address)": {
        "details": "Emitted a new Listing is created. `_validator` should be the caller,  `_owner` should be the specified address and `_listingAddress` is the newly created listing address"
      },
      "UpdateStakingAddr(address)": {
        "details": "Emitted when the staking address is updated, `_stakingAddr` should be the new address "
      }
    },
    "kind": "dev",
    "methods": {
      "allowance(address,address)": {
        "details": "See {IERC20-allowance}."
      },
      "approve(address,uint256)": {
        "details": "See {IERC20-approve}. Requirements: - `spender` cannot be the zero address."
      },
      "balanceOf(address)": {
        "details": "See {IERC20-balanceOf}."
      },
      "createListing(address,uint256)": {
        "details": "Create a new listing (the tokenized version of a real estate product)  Restricted to only validators A newly created listing is set with two properties: `_isCreated` and `_active` Listing validator shall be the validator address making the transaction. Owner of the listing shall be the specified address  Emits a {ListingCreation} event"
      },
      "decimals()": {
        "details": "Returns the number of decimals used to get its user representation. For example, if `decimals` equals `2`, a balance of `505` tokens should be displayed to a user as `5.05` (`505 / 10 ** 2`). Tokens usually opt for a value of 18, imitating the relationship between Ether and Wei. This is the value {ERC20} uses, unless this function is overridden; NOTE: This information is only used for _display_ purposes: it in no way affects any of the arithmetic of the contract, including {IERC20-balanceOf} and {IERC20-transfer}."
      },
      "decreaseAllowance(address,uint256)": {
        "details": "Atomically decreases the allowance granted to `spender` by the caller. This is an alternative to {approve} that can be used as a mitigation for problems described in {IERC20-approve}. Emits an {Approval} event indicating the updated allowance. Requirements: - `spender` cannot be the zero address. - `spender` must have allowance for the caller of at least `subtractedValue`."
      },
      "getRoleAdmin(bytes32)": {
        "details": "Returns the admin role that controls `role`. See {grantRole} and {revokeRole}. To change a role's admin, use {_setRoleAdmin}."
      },
      "grantRole(bytes32,address)": {
        "details": "Grants `role` to `account`. If `account` had not been already granted `role`, emits a {RoleGranted} event. Requirements: - the caller must have ``role``'s admin role."
      },
      "handleListingTx(address,uint256,bool)": {
        "details": "Handle transactions from listings and only from listings  If `_in` is true, _amount will be transfered from `_userAddr` to staking address Otherwise, `_amount` will be transfered from staking address to `_userAddr` Returns true if the transation is success Emits a {Transfer} event from IERC20"
      },
      "hasRole(bytes32,address)": {
        "details": "Returns `true` if `account` has been granted `role`."
      },
      "increaseAllowance(address,uint256)": {
        "details": "Atomically increases the allowance granted to `spender` by the caller. This is an alternative to {approve} that can be used as a mitigation for problems described in {IERC20-approve}. Emits an {Approval} event indicating the updated allowance. Requirements: - `spender` cannot be the zero address."
      },
      "name()": {
        "details": "Returns the name of the token."
      },
      "renounceRole(bytes32,address)": {
        "details": "Revokes `role` from the calling account. Roles are often managed via {grantRole} and {revokeRole}: this function's purpose is to provide a mechanism for accounts to lose their privileges if they are compromised (such as when a trusted device is misplaced). If the calling account had been revoked `role`, emits a {RoleRevoked} event. Requirements: - the caller must be `account`."
      },
      "revokeRole(bytes32,address)": {
        "details": "Revokes `role` from `account`. If `account` had been granted `role`, emits a {RoleRevoked} event. Requirements: - the caller must have ``role``'s admin role."
      },
      "supportsInterface(bytes4)": {
        "details": "See {IERC165-supportsInterface}."
      },
      "symbol()": {
        "details": "Returns the symbol of the token, usually a shorter version of the name."
      },
      "toggleListingStatus(address)": {
        "details": "Toggle listing `_active` status. Shall be useful if there's a listing no longer in operation Restricted to only validators The `_listingAddr` must be the address of a created listing "
      },
      "totalSupply()": {
        "details": "See {IERC20-totalSupply}."
      },
      "transfer(address,uint256)": {
        "details": "See {IERC20-transfer}. Requirements: - `recipient` cannot be the zero address. - the caller must have a balance of at least `amount`."
      },
      "transferFrom(address,address,uint256)": {
        "details": "See {IERC20-transferFrom}. Emits an {Approval} event indicating the updated allowance. This is not required by the EIP. See the note at the beginning of {ERC20}. Requirements: - `sender` and `recipient` cannot be the zero address. - `sender` must have a balance of at least `amount`. - the caller must have allowance for ``sender``'s tokens of at least `amount`."
      },
      "updateStakingAddress(address)": {
        "details": "Update the funds address. Shall be handy if there's a need in changing the initial address, or the previous address is compromised."
      },
      "upgradeTo(address)": {
        "details": "Upgrade the implementation of the proxy to `newImplementation`. Calls {_authorizeUpgrade}. Emits an {Upgraded} event."
      },
      "upgradeToAndCall(address,bytes)": {
        "details": "Upgrade the implementation of the proxy to `newImplementation`, and subsequently execute the function call encoded in `data`. Calls {_authorizeUpgrade}. Emits an {Upgraded} event."
      }
    },
    "stateVariables": {
      "VALIDATOR": {
        "details": "Validators are authorized accounts to handle listing"
      },
      "stakingAddress": {
        "details": "The funds address for paying out rewards and receiving payments"
      }
    },
    "version": 1
  },
  "userdoc": {
    "kind": "user",
    "methods": {},
    "version": 1
  },
  "storageLayout": {
    "storage": [
      {
        "astId": 823,
        "contract": "contracts/v1/Token.sol:Token",
        "label": "_initialized",
        "offset": 0,
        "slot": "0",
        "type": "t_bool"
      },
      {
        "astId": 826,
        "contract": "contracts/v1/Token.sol:Token",
        "label": "_initializing",
        "offset": 1,
        "slot": "0",
        "type": "t_bool"
      },
      {
        "astId": 1938,
        "contract": "contracts/v1/Token.sol:Token",
        "label": "__gap",
        "offset": 0,
        "slot": "1",
        "type": "t_array(t_uint256)50_storage"
      },
      {
        "astId": 993,
        "contract": "contracts/v1/Token.sol:Token",
        "label": "_balances",
        "offset": 0,
        "slot": "51",
        "type": "t_mapping(t_address,t_uint256)"
      },
      {
        "astId": 999,
        "contract": "contracts/v1/Token.sol:Token",
        "label": "_allowances",
        "offset": 0,
        "slot": "52",
        "type": "t_mapping(t_address,t_mapping(t_address,t_uint256))"
      },
      {
        "astId": 1001,
        "contract": "contracts/v1/Token.sol:Token",
        "label": "_totalSupply",
        "offset": 0,
        "slot": "53",
        "type": "t_uint256"
      },
      {
        "astId": 1003,
        "contract": "contracts/v1/Token.sol:Token",
        "label": "_name",
        "offset": 0,
        "slot": "54",
        "type": "t_string_storage"
      },
      {
        "astId": 1005,
        "contract": "contracts/v1/Token.sol:Token",
        "label": "_symbol",
        "offset": 0,
        "slot": "55",
        "type": "t_string_storage"
      },
      {
        "astId": 1546,
        "contract": "contracts/v1/Token.sol:Token",
        "label": "__gap",
        "offset": 0,
        "slot": "56",
        "type": "t_array(t_uint256)45_storage"
      },
      {
        "astId": 2247,
        "contract": "contracts/v1/Token.sol:Token",
        "label": "__gap",
        "offset": 0,
        "slot": "101",
        "type": "t_array(t_uint256)50_storage"
      },
      {
        "astId": 48,
        "contract": "contracts/v1/Token.sol:Token",
        "label": "_roles",
        "offset": 0,
        "slot": "151",
        "type": "t_mapping(t_bytes32,t_struct(RoleData)43_storage)"
      },
      {
        "astId": 335,
        "contract": "contracts/v1/Token.sol:Token",
        "label": "__gap",
        "offset": 0,
        "slot": "152",
        "type": "t_array(t_uint256)49_storage"
      },
      {
        "astId": 806,
        "contract": "contracts/v1/Token.sol:Token",
        "label": "__gap",
        "offset": 0,
        "slot": "201",
        "type": "t_array(t_uint256)50_storage"
      },
      {
        "astId": 973,
        "contract": "contracts/v1/Token.sol:Token",
        "label": "__gap",
        "offset": 0,
        "slot": "251",
        "type": "t_array(t_uint256)50_storage"
      },
      {
        "astId": 3490,
        "contract": "contracts/v1/Token.sol:Token",
        "label": "stakingAddress",
        "offset": 0,
        "slot": "301",
        "type": "t_address"
      },
      {
        "astId": 3500,
        "contract": "contracts/v1/Token.sol:Token",
        "label": "listingStatus",
        "offset": 0,
        "slot": "302",
        "type": "t_mapping(t_address,t_struct(ListingStatusModel)3495_storage)"
      }
    ],
    "types": {
      "t_address": {
        "encoding": "inplace",
        "label": "address",
        "numberOfBytes": "20"
      },
      "t_array(t_uint256)45_storage": {
        "base": "t_uint256",
        "encoding": "inplace",
        "label": "uint256[45]",
        "numberOfBytes": "1440"
      },
      "t_array(t_uint256)49_storage": {
        "base": "t_uint256",
        "encoding": "inplace",
        "label": "uint256[49]",
        "numberOfBytes": "1568"
      },
      "t_array(t_uint256)50_storage": {
        "base": "t_uint256",
        "encoding": "inplace",
        "label": "uint256[50]",
        "numberOfBytes": "1600"
      },
      "t_bool": {
        "encoding": "inplace",
        "label": "bool",
        "numberOfBytes": "1"
      },
      "t_bytes32": {
        "encoding": "inplace",
        "label": "bytes32",
        "numberOfBytes": "32"
      },
      "t_mapping(t_address,t_bool)": {
        "encoding": "mapping",
        "key": "t_address",
        "label": "mapping(address => bool)",
        "numberOfBytes": "32",
        "value": "t_bool"
      },
      "t_mapping(t_address,t_mapping(t_address,t_uint256))": {
        "encoding": "mapping",
        "key": "t_address",
        "label": "mapping(address => mapping(address => uint256))",
        "numberOfBytes": "32",
        "value": "t_mapping(t_address,t_uint256)"
      },
      "t_mapping(t_address,t_struct(ListingStatusModel)3495_storage)": {
        "encoding": "mapping",
        "key": "t_address",
        "label": "mapping(address => struct Token.ListingStatusModel)",
        "numberOfBytes": "32",
        "value": "t_struct(ListingStatusModel)3495_storage"
      },
      "t_mapping(t_address,t_uint256)": {
        "encoding": "mapping",
        "key": "t_address",
        "label": "mapping(address => uint256)",
        "numberOfBytes": "32",
        "value": "t_uint256"
      },
      "t_mapping(t_bytes32,t_struct(RoleData)43_storage)": {
        "encoding": "mapping",
        "key": "t_bytes32",
        "label": "mapping(bytes32 => struct AccessControlUpgradeable.RoleData)",
        "numberOfBytes": "32",
        "value": "t_struct(RoleData)43_storage"
      },
      "t_string_storage": {
        "encoding": "bytes",
        "label": "string",
        "numberOfBytes": "32"
      },
      "t_struct(ListingStatusModel)3495_storage": {
        "encoding": "inplace",
        "label": "struct Token.ListingStatusModel",
        "members": [
          {
            "astId": 3492,
            "contract": "contracts/v1/Token.sol:Token",
            "label": "_isCreated",
            "offset": 0,
            "slot": "0",
            "type": "t_bool"
          },
          {
            "astId": 3494,
            "contract": "contracts/v1/Token.sol:Token",
            "label": "_active",
            "offset": 1,
            "slot": "0",
            "type": "t_bool"
          }
        ],
        "numberOfBytes": "32"
      },
      "t_struct(RoleData)43_storage": {
        "encoding": "inplace",
        "label": "struct AccessControlUpgradeable.RoleData",
        "members": [
          {
            "astId": 40,
            "contract": "contracts/v1/Token.sol:Token",
            "label": "members",
            "offset": 0,
            "slot": "0",
            "type": "t_mapping(t_address,t_bool)"
          },
          {
            "astId": 42,
            "contract": "contracts/v1/Token.sol:Token",
            "label": "adminRole",
            "offset": 0,
            "slot": "1",
            "type": "t_bytes32"
          }
        ],
        "numberOfBytes": "64"
      },
      "t_uint256": {
        "encoding": "inplace",
        "label": "uint256",
        "numberOfBytes": "32"
      }
    }
  }
}